{
  "contractName": "DurianMarket",
  "abi": [
    {
      "inputs": [
        {
          "internalType": "uint256",
          "name": "_durianID",
          "type": "uint256"
        },
        {
          "internalType": "uint256",
          "name": "_durianTreeID",
          "type": "uint256"
        },
        {
          "internalType": "string",
          "name": "_name",
          "type": "string"
        },
        {
          "internalType": "string",
          "name": "_colour",
          "type": "string"
        },
        {
          "internalType": "uint256",
          "name": "_size",
          "type": "uint256"
        },
        {
          "internalType": "uint256",
          "name": "_weight",
          "type": "uint256"
        },
        {
          "internalType": "string",
          "name": "_harvestDate",
          "type": "string"
        },
        {
          "internalType": "string",
          "name": "_registeredLocation",
          "type": "string"
        },
        {
          "internalType": "address",
          "name": "_address",
          "type": "address"
        }
      ],
      "name": "addDurian",
      "outputs": [],
      "stateMutability": "nonpayable",
      "type": "function"
    },
    {
      "inputs": [
        {
          "internalType": "uint256",
          "name": "durianId",
          "type": "uint256"
        },
        {
          "internalType": "uint256",
          "name": "taste",
          "type": "uint256"
        },
        {
          "internalType": "uint256",
          "name": "creaminess",
          "type": "uint256"
        },
        {
          "internalType": "uint256",
          "name": "fragrance",
          "type": "uint256"
        },
        {
          "internalType": "string",
          "name": "comment",
          "type": "string"
        }
      ],
      "name": "addRating",
      "outputs": [],
      "stateMutability": "nonpayable",
      "type": "function"
    },
    {
      "inputs": [
        {
          "internalType": "uint256",
          "name": "durianId",
          "type": "uint256"
        }
      ],
      "name": "getRating",
      "outputs": [
        {
          "internalType": "uint256",
          "name": "",
          "type": "uint256"
        },
        {
          "internalType": "uint256",
          "name": "",
          "type": "uint256"
        },
        {
          "internalType": "uint256",
          "name": "",
          "type": "uint256"
        },
        {
          "internalType": "string",
          "name": "",
          "type": "string"
        }
      ],
      "stateMutability": "view",
      "type": "function",
      "constant": true
    },
    {
      "inputs": [
        {
          "internalType": "uint256",
          "name": "_durianID",
          "type": "uint256"
        }
      ],
      "name": "getDurianById",
      "outputs": [
        {
          "internalType": "uint256",
          "name": "",
          "type": "uint256"
        },
        {
          "internalType": "uint256",
          "name": "",
          "type": "uint256"
        },
        {
          "internalType": "string",
          "name": "",
          "type": "string"
        },
        {
          "internalType": "string",
          "name": "",
          "type": "string"
        },
        {
          "internalType": "uint256",
          "name": "",
          "type": "uint256"
        },
        {
          "internalType": "uint256",
          "name": "",
          "type": "uint256"
        },
        {
          "internalType": "string",
          "name": "",
          "type": "string"
        },
        {
          "internalType": "string",
          "name": "",
          "type": "string"
        },
        {
          "internalType": "string",
          "name": "",
          "type": "string"
        },
        {
          "internalType": "string",
          "name": "",
          "type": "string"
        }
      ],
      "stateMutability": "view",
      "type": "function",
      "constant": true
    },
    {
      "inputs": [
        {
          "internalType": "uint256",
          "name": "durianID",
          "type": "uint256"
        }
      ],
      "name": "getDurianLocation",
      "outputs": [
        {
          "internalType": "string",
          "name": "",
          "type": "string"
        }
      ],
      "stateMutability": "view",
      "type": "function",
      "constant": true
    },
    {
      "inputs": [
        {
          "internalType": "address",
          "name": "_address",
          "type": "address"
        }
      ],
      "name": "showAllOwnedDurians",
      "outputs": [
        {
          "internalType": "uint256[]",
          "name": "",
          "type": "uint256[]"
        }
      ],
      "stateMutability": "view",
      "type": "function",
      "constant": true
    },
    {
      "inputs": [
        {
          "internalType": "uint256",
          "name": "quantity",
          "type": "uint256"
        },
        {
          "internalType": "address",
          "name": "target",
          "type": "address"
        },
        {
          "internalType": "address",
          "name": "sender",
          "type": "address"
        }
      ],
      "name": "transferDurians",
      "outputs": [],
      "stateMutability": "nonpayable",
      "type": "function"
    },
    {
      "inputs": [
        {
          "internalType": "address",
          "name": "_address",
          "type": "address"
        }
      ],
      "name": "getTransactions",
      "outputs": [
        {
          "internalType": "uint256[]",
          "name": "",
          "type": "uint256[]"
        }
      ],
      "stateMutability": "view",
      "type": "function",
      "constant": true
    },
    {
      "inputs": [
        {
          "internalType": "uint256",
          "name": "id",
          "type": "uint256"
        }
      ],
      "name": "getTransactionDetail",
      "outputs": [
        {
          "internalType": "address",
          "name": "",
          "type": "address"
        },
        {
          "internalType": "uint256",
          "name": "",
          "type": "uint256"
        }
      ],
      "stateMutability": "view",
      "type": "function",
      "constant": true
    },
    {
      "inputs": [
        {
          "internalType": "uint256",
          "name": "id",
          "type": "uint256"
        },
        {
          "internalType": "uint256",
          "name": "userType",
          "type": "uint256"
        },
        {
          "internalType": "string",
          "name": "userLocation",
          "type": "string"
        }
      ],
      "name": "receiveDurians",
      "outputs": [],
      "stateMutability": "nonpayable",
      "type": "function"
    },
    {
      "inputs": [
        {
          "internalType": "address",
          "name": "retailerAddress",
          "type": "address"
        },
        {
          "internalType": "address",
          "name": "buyerAddress",
          "type": "address"
        },
        {
          "internalType": "uint256",
          "name": "durianId",
          "type": "uint256"
        }
      ],
      "name": "sellDurian",
      "outputs": [],
      "stateMutability": "nonpayable",
      "type": "function"
    },
    {
      "inputs": [
        {
          "internalType": "uint256",
          "name": "id",
          "type": "uint256"
        }
      ],
      "name": "getDurianOrigin",
      "outputs": [
        {
          "internalType": "uint256",
          "name": "",
          "type": "uint256"
        },
        {
          "internalType": "string",
          "name": "",
          "type": "string"
        },
        {
          "internalType": "string",
          "name": "",
          "type": "string"
        },
        {
          "internalType": "string",
          "name": "",
          "type": "string"
        }
      ],
      "stateMutability": "view",
      "type": "function",
      "constant": true
    }
  ],
  "bytecode": "0x6080604052600060045534801561001557600080fd5b50612968806100256000396000f3fe608060405234801561001057600080fd5b50600436106100b35760003560e01c80638f6cc8c4116100715780638f6cc8c4146101b95780639ff512fa146101d5578063aaf39d6414610206578063b0ee0e9f14610222578063d18b52fa14610255578063d3d0bb0d14610288576100b3565b8062820349146100b85780630f8cda20146100f15780633a3e0c051461012157806343c2514714610151578063464113c71461016d5780636a3e3cea14610189575b600080fd5b6100d260048036038101906100cd9190611cc7565b6102a4565b6040516100e89a99989796959493929190611d93565b60405180910390f35b61010b60048036038101906101069190611eb7565b61083f565b6040516101189190611fa2565b60405180910390f35b61013b60048036038101906101369190611eb7565b6108d6565b6040516101489190611fa2565b60405180910390f35b61016b60048036038101906101669190611fc4565b61096d565b005b61018760048036038101906101829190612017565b610c62565b005b6101a3600480360381019061019e9190611cc7565b6110ce565b6040516101b0919061206a565b60405180910390f35b6101d360048036038101906101ce91906121c1565b611178565b005b6101ef60048036038101906101ea9190611cc7565b6113c3565b6040516101fd92919061223f565b60405180910390f35b610220600480360381019061021b9190612268565b611420565b005b61023c60048036038101906102379190611cc7565b61158d565b60405161024c94939291906122ff565b60405180910390f35b61026f600480360381019061026a9190611cc7565b61168c565b60405161027f949392919061234b565b60405180910390f35b6102a2600480360381019061029d91906123a5565b6118a4565b005b60008060608060008060608060608060008060008d81526020019081526020016000206040518061018001604052908160008201548152602001600182015481526020016002820180546102f79061250e565b80601f01602080910402602001604051908101604052809291908181526020018280546103239061250e565b80156103705780601f1061034557610100808354040283529160200191610370565b820191906000526020600020905b81548152906001019060200180831161035357829003601f168201915b505050505081526020016003820180546103899061250e565b80601f01602080910402602001604051908101604052809291908181526020018280546103b59061250e565b80156104025780601f106103d757610100808354040283529160200191610402565b820191906000526020600020905b8154815290600101906020018083116103e557829003601f168201915b5050505050815260200160048201548152602001600582015481526020016006820160405180604001604052908160008201805461043f9061250e565b80601f016020809104026020016040519081016040528092919081815260200182805461046b9061250e565b80156104b85780601f1061048d576101008083540402835291602001916104b8565b820191906000526020600020905b81548152906001019060200180831161049b57829003601f168201915b505050505081526020016001820154815250508152602001600882016040518060400160405290816000820180546104ef9061250e565b80601f016020809104026020016040519081016040528092919081815260200182805461051b9061250e565b80156105685780601f1061053d57610100808354040283529160200191610568565b820191906000526020600020905b81548152906001019060200180831161054b57829003601f168201915b505050505081526020016001820154815250508152602001600a820160405180604001604052908160008201805461059f9061250e565b80601f01602080910402602001604051908101604052809291908181526020018280546105cb9061250e565b80156106185780601f106105ed57610100808354040283529160200191610618565b820191906000526020600020905b8154815290600101906020018083116105fb57829003601f168201915b505050505081526020016001820154815250508152602001600c8201805461063f9061250e565b80601f016020809104026020016040519081016040528092919081815260200182805461066b9061250e565b80156106b85780601f1061068d576101008083540402835291602001916106b8565b820191906000526020600020905b81548152906001019060200180831161069b57829003601f168201915b50505050508152602001600d82016040518060800160405290816000820154815260200160018201548152602001600282015481526020016003820180546106ff9061250e565b80601f016020809104026020016040519081016040528092919081815260200182805461072b9061250e565b80156107785780601f1061074d57610100808354040283529160200191610778565b820191906000526020600020905b81548152906001019060200180831161075b57829003601f168201915b50505050508152505081526020016011820160009054906101000a900473ffffffffffffffffffffffffffffffffffffffff1673ffffffffffffffffffffffffffffffffffffffff1673ffffffffffffffffffffffffffffffffffffffff16815250509050806000015181602001518260400151836060015184608001518560a001518661012001518760c00151600001518860e0015160000151896101000151600001519a509a509a509a509a509a509a509a509a509a50509193959799509193959799565b6060600360008373ffffffffffffffffffffffffffffffffffffffff1673ffffffffffffffffffffffffffffffffffffffff1681526020019081526020016000208054806020026020016040519081016040528092919081815260200182805480156108ca57602002820191906000526020600020905b8154815260200190600101908083116108b6575b50505050509050919050565b6060600160008373ffffffffffffffffffffffffffffffffffffffff1673ffffffffffffffffffffffffffffffffffffffff16815260200190815260200160002080548060200260200160405190810160405280929190818152602001828054801561096157602002820191906000526020600020905b81548152602001906001019080831161094d575b50505050509050919050565b60005b600160008573ffffffffffffffffffffffffffffffffffffffff1673ffffffffffffffffffffffffffffffffffffffff16815260200190815260200160002080549050811015610bf65781600160008673ffffffffffffffffffffffffffffffffffffffff1673ffffffffffffffffffffffffffffffffffffffff1681526020019081526020016000208281548110610a0c57610a0b61253f565b5b906000526020600020015403610be35760018060008673ffffffffffffffffffffffffffffffffffffffff1673ffffffffffffffffffffffffffffffffffffffff16815260200190815260200160002080549050610a6a919061259d565b8114610b7957600160008573ffffffffffffffffffffffffffffffffffffffff1673ffffffffffffffffffffffffffffffffffffffff16815260200190815260200160002060018060008773ffffffffffffffffffffffffffffffffffffffff1673ffffffffffffffffffffffffffffffffffffffff16815260200190815260200160002080549050610afd919061259d565b81548110610b0e57610b0d61253f565b5b9060005260206000200154600160008673ffffffffffffffffffffffffffffffffffffffff1673ffffffffffffffffffffffffffffffffffffffff1681526020019081526020016000208281548110610b6a57610b6961253f565b5b90600052602060002001819055505b600160008573ffffffffffffffffffffffffffffffffffffffff1673ffffffffffffffffffffffffffffffffffffffff168152602001908152602001600020805480610bc857610bc76125d1565b5b60019003818190600052602060002001600090559055610bf6565b8080610bee90612600565b915050610970565b50600160008373ffffffffffffffffffffffffffffffffffffffff1673ffffffffffffffffffffffffffffffffffffffff168152602001908152602001600020819080600181540180825580915050600190039060005260206000200160009091909190915055505050565b60008367ffffffffffffffff811115610c7e57610c7d612096565b5b604051908082528060200260200182016040528015610cac5781602001602082028036833780820191505090505b50905060005b84811015610d4e576000600160008573ffffffffffffffffffffffffffffffffffffffff1673ffffffffffffffffffffffffffffffffffffffff1681526020019081526020016000208281548110610d0d57610d0c61253f565b5b9060005260206000200154905080838381518110610d2e57610d2d61253f565b5b602002602001018181525050508080610d4690612600565b915050610cb2565b5060008490505b600160008473ffffffffffffffffffffffffffffffffffffffff1673ffffffffffffffffffffffffffffffffffffffff16815260200190815260200160002080549050811015610e7857600160008473ffffffffffffffffffffffffffffffffffffffff1673ffffffffffffffffffffffffffffffffffffffff1681526020019081526020016000208181548110610df057610def61253f565b5b9060005260206000200154600160008573ffffffffffffffffffffffffffffffffffffffff1673ffffffffffffffffffffffffffffffffffffffff1681526020019081526020016000208683610e46919061259d565b81548110610e5757610e5661253f565b5b90600052602060002001819055508080610e7090612600565b915050610d55565b5060005b84811015610efc57600160008473ffffffffffffffffffffffffffffffffffffffff1673ffffffffffffffffffffffffffffffffffffffff168152602001908152602001600020805480610ed357610ed26125d1565b5b600190038181906000526020600020016000905590558080610ef490612600565b915050610e7c565b5060006040518060a0016040528060045481526020018473ffffffffffffffffffffffffffffffffffffffff1681526020018381526020018573ffffffffffffffffffffffffffffffffffffffff168152602001600015158152509050806002600060045481526020019081526020016000206000820151816000015560208201518160010160006101000a81548173ffffffffffffffffffffffffffffffffffffffff021916908373ffffffffffffffffffffffffffffffffffffffff1602179055506040820151816002019080519060200190610fdc929190611b42565b5060608201518160030160006101000a81548173ffffffffffffffffffffffffffffffffffffffff021916908373ffffffffffffffffffffffffffffffffffffffff16021790555060808201518160030160146101000a81548160ff021916908315150217905550905050600360008573ffffffffffffffffffffffffffffffffffffffff1673ffffffffffffffffffffffffffffffffffffffff1681526020019081526020016000206004549080600181540180825580915050600190039060005260206000200160009091909190915055600460008154809291906110c290612600565b91905055505050505050565b606060008083815260200190815260200160002060060160000180546110f39061250e565b80601f016020809104026020016040519081016040528092919081815260200182805461111f9061250e565b801561116c5780601f106111415761010080835404028352916020019161116c565b820191906000526020600020905b81548152906001019060200180831161114f57829003601f168201915b50505050509050919050565b60006002600085815260200190815260200160002060030160009054906101000a900473ffffffffffffffffffffffffffffffffffffffff16905060006002600086815260200190815260200160002060020180548060200260200160405190810160405280929190818152602001828054801561121557602002820191906000526020600020905b815481526020019060010190808311611201575b5050505050905060005b81518110156113bb57600160008473ffffffffffffffffffffffffffffffffffffffff1673ffffffffffffffffffffffffffffffffffffffff16815260200190815260200160002082828151811061127a5761127961253f565b5b602002602001015190806001815401808255809150506001900390600052602060002001600090919091909150556002850361132857836000808484815181106112c7576112c661253f565b5b6020026020010151815260200190815260200160002060080160000190816112ef91906127f4565b50426000808484815181106113075761130661253f565b5b60200260200101518152602001908152602001600020600801600101819055505b600385036113a857836000808484815181106113475761134661253f565b5b60200260200101518152602001908152602001600020600a01600001908161136f91906127f4565b50426000808484815181106113875761138661253f565b5b60200260200101518152602001908152602001600020600a01600101819055505b80806113b390612600565b91505061121f565b505050505050565b6000806002600084815260200190815260200160002060010160009054906101000a900473ffffffffffffffffffffffffffffffffffffffff16600260008581526020019081526020016000206002018054905091509150915091565b60018310158015611432575060058311155b611471576040517f08c379a000000000000000000000000000000000000000000000000000000000815260040161146890612912565b60405180910390fd5b60018310158015611483575060058311155b6114c2576040517f08c379a00000000000000000000000000000000000000000000000000000000081526004016114b990612912565b60405180910390fd5b600183101580156114d4575060058311155b611513576040517f08c379a000000000000000000000000000000000000000000000000000000000815260040161150a90612912565b60405180910390fd5b6000604051806080016040528085815260200186815260200184815260200183815250905080600080888152602001908152602001600020600d01600082015181600001556020820151816001015560408201518160020155606082015181600301908161158191906127f4565b50905050505050505050565b600080600060606000806000878152602001908152602001600020600d016040518060800160405290816000820154815260200160018201548152602001600282015481526020016003820180546115e49061250e565b80601f01602080910402602001604051908101604052809291908181526020018280546116109061250e565b801561165d5780601f106116325761010080835404028352916020019161165d565b820191906000526020600020905b81548152906001019060200180831161164057829003601f168201915b505050505081525050905080600001518160200151826040015183606001519450945094509450509193509193565b6000606080606060008086815260200190815260200160002060010154600080878152602001908152602001600020600601600001600080888152602001908152602001600020600801600001600080898152602001908152602001600020600a016000018280546116fd9061250e565b80601f01602080910402602001604051908101604052809291908181526020018280546117299061250e565b80156117765780601f1061174b57610100808354040283529160200191611776565b820191906000526020600020905b81548152906001019060200180831161175957829003601f168201915b505050505092508180546117899061250e565b80601f01602080910402602001604051908101604052809291908181526020018280546117b59061250e565b80156118025780601f106117d757610100808354040283529160200191611802565b820191906000526020600020905b8154815290600101906020018083116117e557829003601f168201915b505050505091508080546118159061250e565b80601f01602080910402602001604051908101604052809291908181526020018280546118419061250e565b801561188e5780601f106118635761010080835404028352916020019161188e565b820191906000526020600020905b81548152906001019060200180831161187157829003601f168201915b5050505050905093509350935093509193509193565b6118ac611b8f565b898160000181815250508881602001818152505087816040018190525086816060018190525085816080018181525050848160a001818152505083816101200181905250828160c0015160000181905250428160c001516020018181525050600081610160019073ffffffffffffffffffffffffffffffffffffffff16908173ffffffffffffffffffffffffffffffffffffffff1681525050806000808c81526020019081526020016000206000820151816000015560208201518160010155604082015181600201908161198191906127f4565b50606082015181600301908161199791906127f4565b506080820151816004015560a0820151816005015560c08201518160060160008201518160000190816119ca91906127f4565b5060208201518160010155505060e08201518160080160008201518160000190816119f591906127f4565b5060208201518160010155505061010082015181600a016000820151816000019081611a2191906127f4565b5060208201518160010155505061012082015181600c019081611a4491906127f4565b5061014082015181600d016000820151816000015560208201518160010155604082015181600201556060820151816003019081611a8291906127f4565b5050506101608201518160110160006101000a81548173ffffffffffffffffffffffffffffffffffffffff021916908373ffffffffffffffffffffffffffffffffffffffff160217905550905050600160008373ffffffffffffffffffffffffffffffffffffffff1673ffffffffffffffffffffffffffffffffffffffff1681526020019081526020016000208a908060018154018082558091505060019003906000526020600020016000909190919091505550505050505050505050565b828054828255906000526020600020908101928215611b7e579160200282015b82811115611b7d578251825591602001919060010190611b62565b5b509050611b8b9190611c1e565b5090565b604051806101800160405280600081526020016000815260200160608152602001606081526020016000815260200160008152602001611bcd611c3b565b8152602001611bda611c3b565b8152602001611be7611c3b565b815260200160608152602001611bfb611c55565b8152602001600073ffffffffffffffffffffffffffffffffffffffff1681525090565b5b80821115611c37576000816000905550600101611c1f565b5090565b604051806040016040528060608152602001600081525090565b6040518060800160405280600081526020016000815260200160008152602001606081525090565b6000604051905090565b600080fd5b600080fd5b6000819050919050565b611ca481611c91565b8114611caf57600080fd5b50565b600081359050611cc181611c9b565b92915050565b600060208284031215611cdd57611cdc611c87565b5b6000611ceb84828501611cb2565b91505092915050565b611cfd81611c91565b82525050565b600081519050919050565b600082825260208201905092915050565b60005b83811015611d3d578082015181840152602081019050611d22565b60008484015250505050565b6000601f19601f8301169050919050565b6000611d6582611d03565b611d6f8185611d0e565b9350611d7f818560208601611d1f565b611d8881611d49565b840191505092915050565b600061014082019050611da9600083018d611cf4565b611db6602083018c611cf4565b8181036040830152611dc8818b611d5a565b90508181036060830152611ddc818a611d5a565b9050611deb6080830189611cf4565b611df860a0830188611cf4565b81810360c0830152611e0a8187611d5a565b905081810360e0830152611e1e8186611d5a565b9050818103610100830152611e338185611d5a565b9050818103610120830152611e488184611d5a565b90509b9a5050505050505050505050565b600073ffffffffffffffffffffffffffffffffffffffff82169050919050565b6000611e8482611e59565b9050919050565b611e9481611e79565b8114611e9f57600080fd5b50565b600081359050611eb181611e8b565b92915050565b600060208284031215611ecd57611ecc611c87565b5b6000611edb84828501611ea2565b91505092915050565b600081519050919050565b600082825260208201905092915050565b6000819050602082019050919050565b611f1981611c91565b82525050565b6000611f2b8383611f10565b60208301905092915050565b6000602082019050919050565b6000611f4f82611ee4565b611f598185611eef565b9350611f6483611f00565b8060005b83811015611f95578151611f7c8882611f1f565b9750611f8783611f37565b925050600181019050611f68565b5085935050505092915050565b60006020820190508181036000830152611fbc8184611f44565b905092915050565b600080600060608486031215611fdd57611fdc611c87565b5b6000611feb86828701611ea2565b9350506020611ffc86828701611ea2565b925050604061200d86828701611cb2565b9150509250925092565b6000806000606084860312156120305761202f611c87565b5b600061203e86828701611cb2565b935050602061204f86828701611ea2565b925050604061206086828701611ea2565b9150509250925092565b600060208201905081810360008301526120848184611d5a565b905092915050565b600080fd5b600080fd5b7f4e487b7100000000000000000000000000000000000000000000000000000000600052604160045260246000fd5b6120ce82611d49565b810181811067ffffffffffffffff821117156120ed576120ec612096565b5b80604052505050565b6000612100611c7d565b905061210c82826120c5565b919050565b600067ffffffffffffffff82111561212c5761212b612096565b5b61213582611d49565b9050602081019050919050565b82818337600083830152505050565b600061216461215f84612111565b6120f6565b9050828152602081018484840111156121805761217f612091565b5b61218b848285612142565b509392505050565b600082601f8301126121a8576121a761208c565b5b81356121b8848260208601612151565b91505092915050565b6000806000606084860312156121da576121d9611c87565b5b60006121e886828701611cb2565b93505060206121f986828701611cb2565b925050604084013567ffffffffffffffff81111561221a57612219611c8c565b5b61222686828701612193565b9150509250925092565b61223981611e79565b82525050565b60006040820190506122546000830185612230565b6122616020830184611cf4565b9392505050565b600080600080600060a0868803121561228457612283611c87565b5b600061229288828901611cb2565b95505060206122a388828901611cb2565b94505060406122b488828901611cb2565b93505060606122c588828901611cb2565b925050608086013567ffffffffffffffff8111156122e6576122e5611c8c565b5b6122f288828901612193565b9150509295509295909350565b60006080820190506123146000830187611cf4565b6123216020830186611cf4565b61232e6040830185611cf4565b81810360608301526123408184611d5a565b905095945050505050565b60006080820190506123606000830187611cf4565b81810360208301526123728186611d5a565b905081810360408301526123868185611d5a565b9050818103606083015261239a8184611d5a565b905095945050505050565b60008060008060008060008060006101208a8c0312156123c8576123c7611c87565b5b60006123d68c828d01611cb2565b99505060206123e78c828d01611cb2565b98505060408a013567ffffffffffffffff81111561240857612407611c8c565b5b6124148c828d01612193565b97505060608a013567ffffffffffffffff81111561243557612434611c8c565b5b6124418c828d01612193565b96505060806124528c828d01611cb2565b95505060a06124638c828d01611cb2565b94505060c08a013567ffffffffffffffff81111561248457612483611c8c565b5b6124908c828d01612193565b93505060e08a013567ffffffffffffffff8111156124b1576124b0611c8c565b5b6124bd8c828d01612193565b9250506101006124cf8c828d01611ea2565b9150509295985092959850929598565b7f4e487b7100000000000000000000000000000000000000000000000000000000600052602260045260246000fd5b6000600282049050600182168061252657607f821691505b602082108103612539576125386124df565b5b50919050565b7f4e487b7100000000000000000000000000000000000000000000000000000000600052603260045260246000fd5b7f4e487b7100000000000000000000000000000000000000000000000000000000600052601160045260246000fd5b60006125a882611c91565b91506125b383611c91565b92508282039050818111156125cb576125ca61256e565b5b92915050565b7f4e487b7100000000000000000000000000000000000000000000000000000000600052603160045260246000fd5b600061260b82611c91565b91507fffffffffffffffffffffffffffffffffffffffffffffffffffffffffffffffff820361263d5761263c61256e565b5b600182019050919050565b60008190508160005260206000209050919050565b60006020601f8301049050919050565b600082821b905092915050565b6000600883026126aa7fffffffffffffffffffffffffffffffffffffffffffffffffffffffffffffffff8261266d565b6126b4868361266d565b95508019841693508086168417925050509392505050565b6000819050919050565b60006126f16126ec6126e784611c91565b6126cc565b611c91565b9050919050565b6000819050919050565b61270b836126d6565b61271f612717826126f8565b84845461267a565b825550505050565b600090565b612734612727565b61273f818484612702565b505050565b5b818110156127635761275860008261272c565b600181019050612745565b5050565b601f8211156127a85761277981612648565b6127828461265d565b81016020851015612791578190505b6127a561279d8561265d565b830182612744565b50505b505050565b600082821c905092915050565b60006127cb600019846008026127ad565b1980831691505092915050565b60006127e483836127ba565b9150826002028217905092915050565b6127fd82611d03565b67ffffffffffffffff81111561281657612815612096565b5b612820825461250e565b61282b828285612767565b600060209050601f83116001811461285e576000841561284c578287015190505b61285685826127d8565b8655506128be565b601f19841661286c86612648565b60005b828110156128945784890151825560018201915060208501945060208101905061286f565b868310156128b157848901516128ad601f8916826127ba565b8355505b6001600288020188555050505b505050505050565b7f496e76616c696420726174696e672076616c7565000000000000000000000000600082015250565b60006128fc601483611d0e565b9150612907826128c6565b602082019050919050565b6000602082019050818103600083015261292b816128ef565b905091905056fea264697066735822122053b800fa70391f8d788c2d3e55b0c748224004d0bd78bb7ddad0eda6dc2b631264736f6c63430008130033",
  "immutableReferences": {},
  "source": "// SPDX-License-Identifier: MIT\r\npragma solidity ^0.8.0;\r\n\r\ncontract DurianMarket {\r\n    \r\n    struct Location{\r\n        string locationName;\r\n        uint timestamp;\r\n    }\r\n    struct Durian {\r\n        uint256 durianID;\r\n        uint256 durianTreeID;\r\n        string name;\r\n        string colour;\r\n        uint256 size;\r\n        uint256 weight;\r\n        Location registeredLocation;\r\n        Location distributedLocation;\r\n        Location retailedLocation;\r\n        string harvestDate;\r\n        Rating rating;\r\n        address userAddress;\r\n    }\r\n\r\n    struct Transaction{\r\n        uint id;\r\n        address sender;\r\n        uint256[] items;\r\n        address receiver;\r\n        bool status;\r\n    }\r\n\r\n     struct Rating {\r\n        uint256 creaminess;\r\n        uint256 taste;\r\n        uint256 fragrance;\r\n        string comment;\r\n    }\r\n    \r\n\r\n\r\n    // This line declares a public array of type Durian called durians. \r\n    // It will hold all the durians in the market.\r\n    //change to mapping as it is more ez to search\r\n    //Durian[] public durians;\r\n    mapping(uint256 => Durian) durians;\r\n\r\n    mapping(address => uint[]) ownedDurians;\r\n\r\n    mapping(uint256 => Transaction) transactions;\r\n\r\n    mapping(address => uint[]) userTransactions;\r\n\r\n    uint transactionCount = 0;\r\n\r\n    // This line declares a public mapping called durianToOwner that maps each Durian ID to its owner's Ethereum address.\r\n    //mapping(uint256 => address) public durianToOwner;\r\n\r\n    // This line declares a public mapping called ownerDurianCount that maps each owner's Ethereum address to the number of durians they own.\r\n    //mapping(address => uint256) ownerDurianCount;\r\n\r\n    // This function allows the addition of a new durian to the durians array. \r\n    // It takes in 9 parameters that represent the attributes of the durian. \r\n    // It creates a new Durian struct with these attributes and adds it to the end of the durians array. \r\n    // It also updates the durianToOwner mapping to associate the new Durian ID with the caller's Ethereum address, and increments the number of durians that the caller owns in the ownerDurianCount mapping.\r\n    function addDurian(uint256 _durianID, uint256 _durianTreeID, string memory _name, string memory _colour, uint256 _size, uint256 _weight, string memory _harvestDate, string memory _registeredLocation,address _address) public {\r\n        Durian memory newDurian ;\r\n        newDurian.durianID = _durianID;\r\n        newDurian.durianTreeID =  _durianTreeID;\r\n        newDurian.name= _name;\r\n        newDurian.colour= _colour;\r\n        newDurian.size= _size;\r\n        newDurian.weight = _weight;\r\n        newDurian.harvestDate= _harvestDate;\r\n        newDurian.registeredLocation.locationName = _registeredLocation;\r\n        newDurian.registeredLocation.timestamp = block.timestamp;\r\n        newDurian.userAddress = 0x0000000000000000000000000000000000000000;\r\n        durians[_durianID] = newDurian;\r\n        ownedDurians[_address].push(_durianID);\r\n    }\r\n\r\n    function addRating(uint256 durianId, uint256 taste, uint256 creaminess, uint256 fragrance, string memory comment) public {      \r\n        require(creaminess >= 1 && creaminess <= 5, \"Invalid rating value\");\r\n        require(creaminess >= 1 && creaminess <= 5, \"Invalid rating value\");\r\n        require(creaminess >= 1 && creaminess <= 5, \"Invalid rating value\");\r\n        Rating memory newRating = Rating(creaminess, taste,fragrance, comment);\r\n        durians[durianId].rating = newRating;\r\n    }\r\n\r\n\r\n    function getRating(uint256 durianId) public view returns (uint256, uint256,uint256,string memory) {\r\n\r\n        Rating memory rating = durians[durianId].rating;\r\n        return (rating.creaminess, rating.taste, rating.fragrance,rating.comment);\r\n    }\r\n\r\n    \r\n\r\n\r\n\r\n    // This is a public function called getDurianById, which takes in an unsigned integer _id as input and returns a tuple of nine values, each with a specific data type.\r\n    function getDurianById(uint256 _durianID) public view returns (uint256, uint256,string memory, string memory,uint256,uint256,string memory,string memory,string memory, string memory) {\r\n        \r\n        // This line creates a new Durian struct called durian, which is initialized with the durian in the durians array that has the ID _id. \r\n        // The memory keyword specifies that this struct should be stored in memory rather than storage.\r\n        Durian memory durian = durians[_durianID];\r\n        \r\n        // This line returns a tuple of the durian's attributes, in the order specified by the function's return statement. The values are obtained from the durian struct created in the previous line.\r\n        return (durian.durianID, durian.durianTreeID ,durian.name, durian.colour, durian.size, durian.weight, durian.harvestDate,durian.registeredLocation.locationName,durian.distributedLocation.locationName,durian.retailedLocation.locationName);\r\n    }\r\n\r\n    function getDurianLocation(uint256 durianID)public view returns(string memory){\r\n        return durians[durianID].registeredLocation.locationName;\r\n    }\r\n\r\n    function showAllOwnedDurians(address _address)public view returns(uint[] memory){\r\n        return ownedDurians[_address];\r\n    }\r\n\r\n    function transferDurians(uint quantity, address target,address sender)public{\r\n        uint256[] memory sendDurians = new uint256[](quantity);\r\n\r\n        for (uint i = 0; i < quantity; i++) {\r\n            uint id = ownedDurians[sender][i];\r\n            sendDurians[i] = id;\r\n        }\r\n        //move the durians in front of array\r\n\r\n        for (uint i = quantity; i < ownedDurians[sender].length; i++) {\r\n            ownedDurians[sender][i - quantity] = ownedDurians[sender][i];\r\n        }\r\n\r\n        for (uint i = 0; i < quantity; i++) {\r\n            ownedDurians[sender].pop();\r\n        }\r\n       \r\n        Transaction memory transaction = Transaction(transactionCount, sender,sendDurians,target,false);\r\n        transactions[transactionCount] = transaction;\r\n        userTransactions[target].push(transactionCount);\r\n        transactionCount++;\r\n    }\r\n\r\n    function getTransactions(address _address)public view returns(uint[] memory){\r\n        return userTransactions[_address];\r\n    }\r\n\r\n    function getTransactionDetail(uint id)public view returns(address,uint256){\r\n        return (transactions[id].sender,transactions[id].items.length);\r\n    }\r\n\r\n    function receiveDurians(uint id,uint userType,string memory userLocation) public{\r\n        address receiver = transactions[id].receiver;\r\n        uint256[] memory sendDurians = transactions[id].items;\r\n\r\n\r\n        for(uint i = 0; i < sendDurians.length;i++){\r\n            \r\n            ownedDurians[receiver].push(sendDurians[i]);\r\n            if(userType == 2){\r\n                durians[sendDurians[i]].distributedLocation.locationName = userLocation;\r\n                durians[sendDurians[i]].distributedLocation.timestamp = block.timestamp;\r\n            }\r\n\r\n            if(userType == 3){\r\n                durians[sendDurians[i]].retailedLocation.locationName = userLocation;\r\n                durians[sendDurians[i]].retailedLocation.timestamp = block.timestamp;\r\n            }\r\n        }\r\n        \r\n    }\r\n\r\n     function sellDurian(address retailerAddress,address buyerAddress,uint durianId)public {\r\n        \r\n        for (uint256 i = 0; i < ownedDurians[retailerAddress].length; i++) {\r\n            if (ownedDurians[retailerAddress][i] == durianId) {\r\n                if (i != ownedDurians[retailerAddress].length - 1) {\r\n                    ownedDurians[retailerAddress][i] = ownedDurians[retailerAddress][ownedDurians[retailerAddress].length - 1];\r\n                }\r\n                ownedDurians[retailerAddress].pop();\r\n                break;\r\n            }\r\n        }\r\n\r\n        ownedDurians[buyerAddress].push(durianId);\r\n    \r\n     }\r\n\r\n    function getDurianOrigin(uint id) public view returns(uint, string memory, string memory, string memory){\r\n       return (durians[id].durianTreeID,durians[id].registeredLocation.locationName,durians[id].distributedLocation.locationName,durians[id].retailedLocation.locationName);\r\n    }\r\n\r\n    // This function allows the farmers to edit the attributes of a durian based on their selection.\r\n    // function editDurian(uint256 _id, uint256 _selection, string memory _name, string memory _colour, uint256 _size, uint256 _quantity, string memory _provenance, string memory _farmLocation, uint256 _harvestDate, uint256 _harvestMonth, uint256 _harvestYear) public {\r\n        \r\n    //     // checks whether the durian with the given _id exists in the durians array. \r\n    //     // If it does not exist, the function will revert with the message \"Durian does not exist\".\r\n    //     require(durians.length > _id, \"Durian does not exist\");\r\n        \r\n    //     // checks whether the address calling the function (msg.sender) is the owner of the durian with the given _id. \r\n    //     // If msg.sender is not the owner of the durian, the function will revert with the message \"You do not own this Durian\".\r\n    //     require(msg.sender == durianToOwner[_id], \"You do not own this Durian\");\r\n\r\n    //     Durian storage durian = durians[_id];\r\n        \r\n    //     if (_selection == 1) {\r\n    //         durian.name = _name;\r\n    //     } else if (_selection == 2) {\r\n    //         durian.colour = _colour;\r\n    //     } else if (_selection == 3) {\r\n    //         durian.size = _size;\r\n    //     } else if (_selection == 4) {\r\n    //         durian.provenance = _provenance;\r\n    //     } else if (_selection == 5) {\r\n    //         durian.farmLocation = _farmLocation;\r\n    //     } else if (_selection == 6) {\r\n    //         durian.harvestDate = _harvestDate;\r\n    //     } else if (_selection == 7) {\r\n    //         durian.harvestMonth = _harvestMonth;\r\n    //     } else if (_selection == 8) {\r\n    //         durian.harvestYear = _harvestYear;\r\n    //     } else {\r\n    //         revert(\"Invalid selection\");\r\n    //     }\r\n    // }\r\n}",
  "sourcePath": "C:\\Users\\debbi\\OneDrive\\Desktop\\DurianTracker\\contracts\\DurianMarket.sol",
  "compiler": {
    "name": "solc",
    "version": "0.8.19+commit.7dd6d404.Emscripten.clang"
  },
  "schemaVersion": "3.4.13",
  "updatedAt": "2023-05-15T08:50:33.991Z",
  "networkType": "ethereum",
  "devdoc": {
    "kind": "dev",
    "methods": {},
    "version": 1
  },
  "userdoc": {
    "kind": "user",
    "methods": {},
    "version": 1
  }
}