{
  "contractName": "Facade",
  "abi": [
    {
      "inputs": [],
      "stateMutability": "nonpayable",
      "type": "constructor"
    },
    {
      "inputs": [],
      "name": "owner",
      "outputs": [
        {
          "internalType": "address payable",
          "name": "",
          "type": "address"
        }
      ],
      "stateMutability": "view",
      "type": "function",
      "constant": true
    },
    {
      "inputs": [
        {
          "internalType": "string",
          "name": "_username",
          "type": "string"
        },
        {
          "internalType": "string",
          "name": "_pass",
          "type": "string"
        },
        {
          "internalType": "string",
          "name": "_name",
          "type": "string"
        },
        {
          "internalType": "string",
          "name": "_address",
          "type": "string"
        },
        {
          "internalType": "uint256",
          "name": "_postal",
          "type": "uint256"
        },
        {
          "internalType": "string",
          "name": "_state",
          "type": "string"
        },
        {
          "internalType": "uint256",
          "name": "_userType",
          "type": "uint256"
        }
      ],
      "name": "register",
      "outputs": [],
      "stateMutability": "nonpayable",
      "type": "function"
    },
    {
      "inputs": [],
      "name": "getAddress",
      "outputs": [
        {
          "internalType": "address",
          "name": "",
          "type": "address"
        }
      ],
      "stateMutability": "view",
      "type": "function",
      "constant": true
    },
    {
      "inputs": [
        {
          "internalType": "string",
          "name": "username",
          "type": "string"
        },
        {
          "internalType": "string",
          "name": "password",
          "type": "string"
        }
      ],
      "name": "login",
      "outputs": [],
      "stateMutability": "nonpayable",
      "type": "function"
    },
    {
      "inputs": [],
      "name": "getCurrentUserDetail",
      "outputs": [
        {
          "internalType": "string",
          "name": "",
          "type": "string"
        },
        {
          "internalType": "string",
          "name": "",
          "type": "string"
        },
        {
          "internalType": "uint256",
          "name": "",
          "type": "uint256"
        },
        {
          "internalType": "string",
          "name": "",
          "type": "string"
        }
      ],
      "stateMutability": "view",
      "type": "function",
      "constant": true
    },
    {
      "inputs": [
        {
          "internalType": "uint256",
          "name": "durianId",
          "type": "uint256"
        },
        {
          "internalType": "uint256",
          "name": "taste",
          "type": "uint256"
        },
        {
          "internalType": "uint256",
          "name": "creaminess",
          "type": "uint256"
        },
        {
          "internalType": "uint256",
          "name": "fragrance",
          "type": "uint256"
        },
        {
          "internalType": "string",
          "name": "comment",
          "type": "string"
        }
      ],
      "name": "rateDurian",
      "outputs": [],
      "stateMutability": "nonpayable",
      "type": "function"
    },
    {
      "inputs": [
        {
          "internalType": "uint256",
          "name": "durianID",
          "type": "uint256"
        }
      ],
      "name": "getDurianDetail",
      "outputs": [
        {
          "internalType": "uint256",
          "name": "",
          "type": "uint256"
        },
        {
          "internalType": "uint256",
          "name": "",
          "type": "uint256"
        },
        {
          "internalType": "string",
          "name": "",
          "type": "string"
        },
        {
          "internalType": "string",
          "name": "",
          "type": "string"
        },
        {
          "internalType": "uint256",
          "name": "",
          "type": "uint256"
        },
        {
          "internalType": "uint256",
          "name": "",
          "type": "uint256"
        },
        {
          "internalType": "string",
          "name": "",
          "type": "string"
        },
        {
          "internalType": "string",
          "name": "",
          "type": "string"
        },
        {
          "internalType": "string",
          "name": "",
          "type": "string"
        },
        {
          "internalType": "string",
          "name": "",
          "type": "string"
        }
      ],
      "stateMutability": "view",
      "type": "function",
      "constant": true
    },
    {
      "inputs": [
        {
          "internalType": "uint256",
          "name": "durianID",
          "type": "uint256"
        }
      ],
      "name": "getDurianLocation",
      "outputs": [
        {
          "internalType": "string",
          "name": "",
          "type": "string"
        }
      ],
      "stateMutability": "view",
      "type": "function",
      "constant": true
    },
    {
      "inputs": [
        {
          "internalType": "uint256",
          "name": "_durianID",
          "type": "uint256"
        },
        {
          "internalType": "uint256",
          "name": "_durianTreeID",
          "type": "uint256"
        },
        {
          "internalType": "string",
          "name": "_name",
          "type": "string"
        },
        {
          "internalType": "string",
          "name": "_colour",
          "type": "string"
        },
        {
          "internalType": "uint256",
          "name": "_size",
          "type": "uint256"
        },
        {
          "internalType": "uint256",
          "name": "_weight",
          "type": "uint256"
        },
        {
          "internalType": "string",
          "name": "_harvestDate",
          "type": "string"
        }
      ],
      "name": "addDurian",
      "outputs": [],
      "stateMutability": "nonpayable",
      "type": "function"
    },
    {
      "inputs": [
        {
          "internalType": "address",
          "name": "ownerAddress",
          "type": "address"
        }
      ],
      "name": "showAllOwnedDurians",
      "outputs": [
        {
          "internalType": "uint256[]",
          "name": "",
          "type": "uint256[]"
        }
      ],
      "stateMutability": "view",
      "type": "function",
      "constant": true
    },
    {
      "inputs": [
        {
          "internalType": "uint256",
          "name": "quantity",
          "type": "uint256"
        },
        {
          "internalType": "address",
          "name": "target",
          "type": "address"
        },
        {
          "internalType": "address",
          "name": "source",
          "type": "address"
        }
      ],
      "name": "transferDurians",
      "outputs": [],
      "stateMutability": "nonpayable",
      "type": "function"
    },
    {
      "inputs": [
        {
          "internalType": "uint256",
          "name": "id",
          "type": "uint256"
        }
      ],
      "name": "receiveDurians",
      "outputs": [],
      "stateMutability": "nonpayable",
      "type": "function"
    },
    {
      "inputs": [
        {
          "internalType": "address",
          "name": "senderAddress",
          "type": "address"
        }
      ],
      "name": "getTransactions",
      "outputs": [
        {
          "internalType": "uint256[]",
          "name": "",
          "type": "uint256[]"
        }
      ],
      "stateMutability": "view",
      "type": "function",
      "constant": true
    },
    {
      "inputs": [
        {
          "internalType": "uint256",
          "name": "id",
          "type": "uint256"
        }
      ],
      "name": "getTransactionDetail",
      "outputs": [
        {
          "internalType": "string",
          "name": "",
          "type": "string"
        },
        {
          "internalType": "uint256",
          "name": "",
          "type": "uint256"
        }
      ],
      "stateMutability": "view",
      "type": "function",
      "constant": true
    },
    {
      "inputs": [
        {
          "internalType": "uint256",
          "name": "id",
          "type": "uint256"
        }
      ],
      "name": "getDurianOrigin",
      "outputs": [
        {
          "internalType": "uint256",
          "name": "",
          "type": "uint256"
        },
        {
          "internalType": "string",
          "name": "",
          "type": "string"
        },
        {
          "internalType": "string",
          "name": "",
          "type": "string"
        },
        {
          "internalType": "string",
          "name": "",
          "type": "string"
        }
      ],
      "stateMutability": "view",
      "type": "function",
      "constant": true
    },
    {
      "inputs": [
        {
          "internalType": "address",
          "name": "durianRetailer",
          "type": "address"
        },
        {
          "internalType": "address",
          "name": "durianBuyer",
          "type": "address"
        },
        {
          "internalType": "uint256",
          "name": "durianId",
          "type": "uint256"
        },
        {
          "internalType": "uint256",
          "name": "durianFee",
          "type": "uint256"
        }
      ],
      "name": "buyDurian",
      "outputs": [],
      "stateMutability": "payable",
      "type": "function",
      "payable": true
    }
  ],
  "bytecode": "0x60806040526040516200001290620000c5565b604051809103906000f0801580156200002f573d6000803e3d6000fd5b50600160006101000a81548173ffffffffffffffffffffffffffffffffffffffff021916908373ffffffffffffffffffffffffffffffffffffffff1602179055503480156200007d57600080fd5b5033600260006101000a81548173ffffffffffffffffffffffffffffffffffffffff021916908373ffffffffffffffffffffffffffffffffffffffff160217905550620000d3565b61298d8062003cd983390190565b613bf680620000e36000396000f3fe6080604052600436106200010a5760003560e01c806385ad596f1162000097578063d18b52fa1162000061578063d18b52fa146200038b578063e1c8b9b314620003d2578063ea9f9c431462000400578063ef78bd68146200044d576200010a565b806385ad596f14620002c85780638da5cb5b14620002f65780639ff512fa1462000326578063abb8c400146200036b576200010a565b80633a3e0c0511620000d95780633a3e0c0514620001e4578063464113c7146200022857806358467dbc14620002565780636a3e3cea1462000284576200010a565b80630f8cda20146200010f5780631d4cce7d1462000153578063365d78a7146200018657806338cc483114620001b4575b600080fd5b3480156200011c57600080fd5b506200013b6004803603810190620001359190620018c3565b6200047b565b6040516200014a9190620019cd565b60405180910390f35b3480156200016057600080fd5b506200016b6200052a565b6040516200017d949392919062001a9c565b60405180910390f35b3480156200019357600080fd5b50620001b26004803603810190620001ac919062001c80565b62000874565b005b348015620001c157600080fd5b50620001cc62000a74565b604051620001db919062001da1565b60405180910390f35b348015620001f157600080fd5b506200021060048036038101906200020a9190620018c3565b62000a7c565b6040516200021f9190620019cd565b60405180910390f35b3480156200023557600080fd5b506200025460048036038101906200024e919062001dbe565b62000b2b565b005b3480156200026357600080fd5b506200028260048036038101906200027c919062001e1a565b62000bc5565b005b3480156200029157600080fd5b50620002b06004803603810190620002aa919062001e9f565b62000eb8565b604051620002bf919062001ed1565b60405180910390f35b348015620002d557600080fd5b50620002f46004803603810190620002ee919062001ef5565b62000f67565b005b3480156200030357600080fd5b506200030e620010c6565b6040516200031d919062002068565b60405180910390f35b3480156200033357600080fd5b506200035260048036038101906200034c919062001e9f565b620010ec565b6040516200036292919062002085565b60405180910390f35b620003896004803603810190620003839190620020b9565b62001279565b005b3480156200039857600080fd5b50620003b76004803603810190620003b1919062001e9f565b6200138c565b604051620003c994939291906200212b565b60405180910390f35b348015620003df57600080fd5b50620003fe6004803603810190620003f8919062001e9f565b62001448565b005b3480156200040d57600080fd5b506200042c600480360381019062000426919062001e9f565b620016c7565b604051620004449a999897969594939291906200218d565b60405180910390f35b3480156200045a57600080fd5b5062000479600480360381019062000473919062002267565b6200179c565b005b6060600160009054906101000a900473ffffffffffffffffffffffffffffffffffffffff1673ffffffffffffffffffffffffffffffffffffffff16630f8cda20836040518263ffffffff1660e01b8152600401620004da919062001da1565b600060405180830381865afa158015620004f8573d6000803e3d6000fd5b505050506040513d6000823e3d601f19601f8201168201806040525081019062000523919062002400565b9050919050565b6060806000606060008060009054906101000a900473ffffffffffffffffffffffffffffffffffffffff1673ffffffffffffffffffffffffffffffffffffffff1663681f3e6d6040518163ffffffff1660e01b8152600401600060405180830381865afa158015620005a0573d6000803e3d6000fd5b505050506040513d6000823e3d601f19601f82011682018060405250810190620005cb9190620024cf565b51036200060f576040517f08c379a0000000000000000000000000000000000000000000000000000000008152600401620006069062002570565b60405180910390fd5b60008054906101000a900473ffffffffffffffffffffffffffffffffffffffff1673ffffffffffffffffffffffffffffffffffffffff166306fdde036040518163ffffffff1660e01b8152600401600060405180830381865afa1580156200067b573d6000803e3d6000fd5b505050506040513d6000823e3d601f19601f82011682018060405250810190620006a69190620024cf565b60008054906101000a900473ffffffffffffffffffffffffffffffffffffffff1673ffffffffffffffffffffffffffffffffffffffff1663f629ad306040518163ffffffff1660e01b8152600401600060405180830381865afa15801562000712573d6000803e3d6000fd5b505050506040513d6000823e3d601f19601f820116820180604052508101906200073d9190620024cf565b60008054906101000a900473ffffffffffffffffffffffffffffffffffffffff1673ffffffffffffffffffffffffffffffffffffffff16633dbcecec6040518163ffffffff1660e01b8152600401602060405180830381865afa158015620007a9573d6000803e3d6000fd5b505050506040513d601f19601f82011682018060405250810190620007cf919062002592565b60008054906101000a900473ffffffffffffffffffffffffffffffffffffffff1673ffffffffffffffffffffffffffffffffffffffff1663c19d93fb6040518163ffffffff1660e01b8152600401600060405180830381865afa1580156200083b573d6000803e3d6000fd5b505050506040513d6000823e3d601f19601f82011682018060405250810190620008669190620024cf565b935093509350935090919293565b60008060009054906101000a900473ffffffffffffffffffffffffffffffffffffffff1673ffffffffffffffffffffffffffffffffffffffff166306fdde036040518163ffffffff1660e01b8152600401600060405180830381865afa158015620008e3573d6000803e3d6000fd5b505050506040513d6000823e3d601f19601f820116820180604052508101906200090e9190620024cf565b60008054906101000a900473ffffffffffffffffffffffffffffffffffffffff1673ffffffffffffffffffffffffffffffffffffffff1663f629ad306040518163ffffffff1660e01b8152600401600060405180830381865afa1580156200097a573d6000803e3d6000fd5b505050506040513d6000823e3d601f19601f82011682018060405250810190620009a59190620024cf565b604051602001620009b892919062002606565b6040516020818303038152906040529050600160009054906101000a900473ffffffffffffffffffffffffffffffffffffffff1673ffffffffffffffffffffffffffffffffffffffff1663d3d0bb0d8989898989898989336040518a63ffffffff1660e01b815260040162000a36999897969594939291906200262e565b600060405180830381600087803b15801562000a5157600080fd5b505af115801562000a66573d6000803e3d6000fd5b505050505050505050505050565b600033905090565b6060600160009054906101000a900473ffffffffffffffffffffffffffffffffffffffff1673ffffffffffffffffffffffffffffffffffffffff16633a3e0c05836040518263ffffffff1660e01b815260040162000adb919062001da1565b600060405180830381865afa15801562000af9573d6000803e3d6000fd5b505050506040513d6000823e3d601f19601f8201168201806040525081019062000b24919062002400565b9050919050565b600160009054906101000a900473ffffffffffffffffffffffffffffffffffffffff1673ffffffffffffffffffffffffffffffffffffffff1663464113c78484846040518463ffffffff1660e01b815260040162000b8c93929190620026e9565b600060405180830381600087803b15801562000ba757600080fd5b505af115801562000bbc573d6000803e3d6000fd5b50505050505050565b8180519060200120600360003373ffffffffffffffffffffffffffffffffffffffff1673ffffffffffffffffffffffffffffffffffffffff16815260200190815260200160002060009054906101000a900473ffffffffffffffffffffffffffffffffffffffff1673ffffffffffffffffffffffffffffffffffffffff1663681f3e6d6040518163ffffffff1660e01b8152600401600060405180830381865afa15801562000c78573d6000803e3d6000fd5b505050506040513d6000823e3d601f19601f8201168201806040525081019062000ca39190620024cf565b805190602001201462000ced576040517f08c379a000000000000000000000000000000000000000000000000000000000815260040162000ce49062002776565b60405180910390fd5b8080519060200120600360003373ffffffffffffffffffffffffffffffffffffffff1673ffffffffffffffffffffffffffffffffffffffff16815260200190815260200160002060009054906101000a900473ffffffffffffffffffffffffffffffffffffffff1673ffffffffffffffffffffffffffffffffffffffff1663cc8e23946040518163ffffffff1660e01b8152600401600060405180830381865afa15801562000da0573d6000803e3d6000fd5b505050506040513d6000823e3d601f19601f8201168201806040525081019062000dcb9190620024cf565b805190602001201462000e15576040517f08c379a000000000000000000000000000000000000000000000000000000000815260040162000e0c90620027e8565b60405180910390fd5b600360003373ffffffffffffffffffffffffffffffffffffffff1673ffffffffffffffffffffffffffffffffffffffff16815260200190815260200160002060009054906101000a900473ffffffffffffffffffffffffffffffffffffffff166000806101000a81548173ffffffffffffffffffffffffffffffffffffffff021916908373ffffffffffffffffffffffffffffffffffffffff1602179055505050565b6060600160009054906101000a900473ffffffffffffffffffffffffffffffffffffffff1673ffffffffffffffffffffffffffffffffffffffff16636a3e3cea836040518263ffffffff1660e01b815260040162000f1791906200280a565b600060405180830381865afa15801562000f35573d6000803e3d6000fd5b505050506040513d6000823e3d601f19601f8201168201806040525081019062000f609190620024cf565b9050919050565b600087511162000fae576040517f08c379a000000000000000000000000000000000000000000000000000000000815260040162000fa59062002877565b60405180910390fd5b600086511162000ff5576040517f08c379a000000000000000000000000000000000000000000000000000000000815260040162000fec90620028e9565b60405180910390fd5b6000878787878787876040516200100c906200183c565b6200101e97969594939291906200290b565b604051809103906000f0801580156200103b573d6000803e3d6000fd5b50905080600360003373ffffffffffffffffffffffffffffffffffffffff1673ffffffffffffffffffffffffffffffffffffffff16815260200190815260200160002060006101000a81548173ffffffffffffffffffffffffffffffffffffffff021916908373ffffffffffffffffffffffffffffffffffffffff1602179055505050505050505050565b600260009054906101000a900473ffffffffffffffffffffffffffffffffffffffff1681565b60606000806000600160009054906101000a900473ffffffffffffffffffffffffffffffffffffffff1673ffffffffffffffffffffffffffffffffffffffff16639ff512fa866040518263ffffffff1660e01b81526004016200115091906200280a565b6040805180830381865afa1580156200116d573d6000803e3d6000fd5b505050506040513d601f19601f82011682018060405250810190620011939190620029c2565b91509150600360008373ffffffffffffffffffffffffffffffffffffffff1673ffffffffffffffffffffffffffffffffffffffff16815260200190815260200160002060009054906101000a900473ffffffffffffffffffffffffffffffffffffffff1673ffffffffffffffffffffffffffffffffffffffff166306fdde036040518163ffffffff1660e01b8152600401600060405180830381865afa15801562001242573d6000803e3d6000fd5b505050506040513d6000823e3d601f19601f820116820180604052508101906200126d9190620024cf565b81935093505050915091565b803410156200128757600080fd5b600260009054906101000a900473ffffffffffffffffffffffffffffffffffffffff1673ffffffffffffffffffffffffffffffffffffffff166108fc349081150290604051600060405180830381858888f19350505050158015620012f0573d6000803e3d6000fd5b50600160009054906101000a900473ffffffffffffffffffffffffffffffffffffffff1673ffffffffffffffffffffffffffffffffffffffff166343c251478585856040518463ffffffff1660e01b8152600401620013529392919062002a09565b600060405180830381600087803b1580156200136d57600080fd5b505af115801562001382573d6000803e3d6000fd5b5050505050505050565b60006060806060600160009054906101000a900473ffffffffffffffffffffffffffffffffffffffff1673ffffffffffffffffffffffffffffffffffffffff1663d18b52fa866040518263ffffffff1660e01b8152600401620013f091906200280a565b600060405180830381865afa1580156200140e573d6000803e3d6000fd5b505050506040513d6000823e3d601f19601f8201168201806040525081019062001439919062002a46565b93509350935093509193509193565b60008060009054906101000a900473ffffffffffffffffffffffffffffffffffffffff1673ffffffffffffffffffffffffffffffffffffffff166306fdde036040518163ffffffff1660e01b8152600401600060405180830381865afa158015620014b7573d6000803e3d6000fd5b505050506040513d6000823e3d601f19601f82011682018060405250810190620014e29190620024cf565b60008054906101000a900473ffffffffffffffffffffffffffffffffffffffff1673ffffffffffffffffffffffffffffffffffffffff1663f629ad306040518163ffffffff1660e01b8152600401600060405180830381865afa1580156200154e573d6000803e3d6000fd5b505050506040513d6000823e3d601f19601f82011682018060405250810190620015799190620024cf565b6040516020016200158c92919062002606565b6040516020818303038152906040529050600160009054906101000a900473ffffffffffffffffffffffffffffffffffffffff1673ffffffffffffffffffffffffffffffffffffffff16638f6cc8c48360008054906101000a900473ffffffffffffffffffffffffffffffffffffffff1673ffffffffffffffffffffffffffffffffffffffff166384819ace6040518163ffffffff1660e01b8152600401602060405180830381865afa15801562001648573d6000803e3d6000fd5b505050506040513d601f19601f820116820180604052508101906200166e919062002592565b846040518463ffffffff1660e01b81526004016200168f9392919062002b15565b600060405180830381600087803b158015620016aa57600080fd5b505af1158015620016bf573d6000803e3d6000fd5b505050505050565b600080606080600080606080606080600160009054906101000a900473ffffffffffffffffffffffffffffffffffffffff1673ffffffffffffffffffffffffffffffffffffffff16628203498c6040518263ffffffff1660e01b81526004016200173291906200280a565b600060405180830381865afa15801562001750573d6000803e3d6000fd5b505050506040513d6000823e3d601f19601f820116820180604052508101906200177b919062002b59565b99509950995099509950995099509950995099509193959799509193959799565b600160009054906101000a900473ffffffffffffffffffffffffffffffffffffffff1673ffffffffffffffffffffffffffffffffffffffff1663aaf39d6486868686866040518663ffffffff1660e01b81526004016200180195949392919062002d09565b600060405180830381600087803b1580156200181c57600080fd5b505af115801562001831573d6000803e3d6000fd5b505050505050505050565b610e538062002d6e83390190565b6000604051905090565b600080fd5b600080fd5b600073ffffffffffffffffffffffffffffffffffffffff82169050919050565b60006200188b826200185e565b9050919050565b6200189d816200187e565b8114620018a957600080fd5b50565b600081359050620018bd8162001892565b92915050565b600060208284031215620018dc57620018db62001854565b5b6000620018ec84828501620018ac565b91505092915050565b600081519050919050565b600082825260208201905092915050565b6000819050602082019050919050565b6000819050919050565b620019368162001921565b82525050565b60006200194a83836200192b565b60208301905092915050565b6000602082019050919050565b60006200197082620018f5565b6200197c818562001900565b9350620019898362001911565b8060005b83811015620019c0578151620019a488826200193c565b9750620019b18362001956565b9250506001810190506200198d565b5085935050505092915050565b60006020820190508181036000830152620019e9818462001963565b905092915050565b600081519050919050565b600082825260208201905092915050565b60005b8381101562001a2d57808201518184015260208101905062001a10565b60008484015250505050565b6000601f19601f8301169050919050565b600062001a5782620019f1565b62001a638185620019fc565b935062001a7581856020860162001a0d565b62001a808162001a39565b840191505092915050565b62001a968162001921565b82525050565b6000608082019050818103600083015262001ab8818762001a4a565b9050818103602083015262001ace818662001a4a565b905062001adf604083018562001a8b565b818103606083015262001af3818462001a4a565b905095945050505050565b62001b098162001921565b811462001b1557600080fd5b50565b60008135905062001b298162001afe565b92915050565b600080fd5b600080fd5b7f4e487b7100000000000000000000000000000000000000000000000000000000600052604160045260246000fd5b62001b738262001a39565b810181811067ffffffffffffffff8211171562001b955762001b9462001b39565b5b80604052505050565b600062001baa6200184a565b905062001bb8828262001b68565b919050565b600067ffffffffffffffff82111562001bdb5762001bda62001b39565b5b62001be68262001a39565b9050602081019050919050565b82818337600083830152505050565b600062001c1962001c138462001bbd565b62001b9e565b90508281526020810184848401111562001c385762001c3762001b34565b5b62001c4584828562001bf3565b509392505050565b600082601f83011262001c655762001c6462001b2f565b5b813562001c7784826020860162001c02565b91505092915050565b600080600080600080600060e0888a03121562001ca25762001ca162001854565b5b600062001cb28a828b0162001b18565b975050602062001cc58a828b0162001b18565b965050604088013567ffffffffffffffff81111562001ce95762001ce862001859565b5b62001cf78a828b0162001c4d565b955050606088013567ffffffffffffffff81111562001d1b5762001d1a62001859565b5b62001d298a828b0162001c4d565b945050608062001d3c8a828b0162001b18565b93505060a062001d4f8a828b0162001b18565b92505060c088013567ffffffffffffffff81111562001d735762001d7262001859565b5b62001d818a828b0162001c4d565b91505092959891949750929550565b62001d9b816200187e565b82525050565b600060208201905062001db8600083018462001d90565b92915050565b60008060006060848603121562001dda5762001dd962001854565b5b600062001dea8682870162001b18565b935050602062001dfd86828701620018ac565b925050604062001e1086828701620018ac565b9150509250925092565b6000806040838503121562001e345762001e3362001854565b5b600083013567ffffffffffffffff81111562001e555762001e5462001859565b5b62001e638582860162001c4d565b925050602083013567ffffffffffffffff81111562001e875762001e8662001859565b5b62001e958582860162001c4d565b9150509250929050565b60006020828403121562001eb85762001eb762001854565b5b600062001ec88482850162001b18565b91505092915050565b6000602082019050818103600083015262001eed818462001a4a565b905092915050565b600080600080600080600060e0888a03121562001f175762001f1662001854565b5b600088013567ffffffffffffffff81111562001f385762001f3762001859565b5b62001f468a828b0162001c4d565b975050602088013567ffffffffffffffff81111562001f6a5762001f6962001859565b5b62001f788a828b0162001c4d565b965050604088013567ffffffffffffffff81111562001f9c5762001f9b62001859565b5b62001faa8a828b0162001c4d565b955050606088013567ffffffffffffffff81111562001fce5762001fcd62001859565b5b62001fdc8a828b0162001c4d565b945050608062001fef8a828b0162001b18565b93505060a088013567ffffffffffffffff81111562002013576200201262001859565b5b620020218a828b0162001c4d565b92505060c0620020348a828b0162001b18565b91505092959891949750929550565b600062002050826200185e565b9050919050565b620020628162002043565b82525050565b60006020820190506200207f600083018462002057565b92915050565b60006040820190508181036000830152620020a1818562001a4a565b9050620020b2602083018462001a8b565b9392505050565b60008060008060808587031215620020d657620020d562001854565b5b6000620020e687828801620018ac565b9450506020620020f987828801620018ac565b93505060406200210c8782880162001b18565b92505060606200211f8782880162001b18565b91505092959194509250565b600060808201905062002142600083018762001a8b565b818103602083015262002156818662001a4a565b905081810360408301526200216c818562001a4a565b9050818103606083015262002182818462001a4a565b905095945050505050565b600061014082019050620021a5600083018d62001a8b565b620021b4602083018c62001a8b565b8181036040830152620021c8818b62001a4a565b90508181036060830152620021de818a62001a4a565b9050620021ef608083018962001a8b565b620021fe60a083018862001a8b565b81810360c083015262002212818762001a4a565b905081810360e083015262002228818662001a4a565b90508181036101008301526200223f818562001a4a565b905081810361012083015262002256818462001a4a565b90509b9a5050505050505050505050565b600080600080600060a0868803121562002286576200228562001854565b5b6000620022968882890162001b18565b9550506020620022a98882890162001b18565b9450506040620022bc8882890162001b18565b9350506060620022cf8882890162001b18565b925050608086013567ffffffffffffffff811115620022f357620022f262001859565b5b620023018882890162001c4d565b9150509295509295909350565b600067ffffffffffffffff8211156200232c576200232b62001b39565b5b602082029050602081019050919050565b600080fd5b600081519050620023538162001afe565b92915050565b6000620023706200236a846200230e565b62001b9e565b905080838252602082019050602084028301858111156200239657620023956200233d565b5b835b81811015620023c35780620023ae888262002342565b84526020840193505060208101905062002398565b5050509392505050565b600082601f830112620023e557620023e462001b2f565b5b8151620023f784826020860162002359565b91505092915050565b60006020828403121562002419576200241862001854565b5b600082015167ffffffffffffffff8111156200243a576200243962001859565b5b6200244884828501620023cd565b91505092915050565b600062002468620024628462001bbd565b62001b9e565b90508281526020810184848401111562002487576200248662001b34565b5b6200249484828562001a0d565b509392505050565b600082601f830112620024b457620024b362001b2f565b5b8151620024c684826020860162002451565b91505092915050565b600060208284031215620024e857620024e762001854565b5b600082015167ffffffffffffffff81111562002509576200250862001859565b5b62002517848285016200249c565b91505092915050565b7f506c65617365206c6f6720696e00000000000000000000000000000000000000600082015250565b600062002558600d83620019fc565b9150620025658262002520565b602082019050919050565b600060208201905081810360008301526200258b8162002549565b9050919050565b600060208284031215620025ab57620025aa62001854565b5b6000620025bb8482850162002342565b91505092915050565b600081905092915050565b6000620025dc82620019f1565b620025e88185620025c4565b9350620025fa81856020860162001a0d565b80840191505092915050565b6000620026148285620025cf565b9150620026228284620025cf565b91508190509392505050565b60006101208201905062002646600083018c62001a8b565b62002655602083018b62001a8b565b818103604083015262002669818a62001a4a565b905081810360608301526200267f818962001a4a565b905062002690608083018862001a8b565b6200269f60a083018762001a8b565b81810360c0830152620026b3818662001a4a565b905081810360e0830152620026c9818562001a4a565b9050620026db61010083018462001d90565b9a9950505050505050505050565b600060608201905062002700600083018662001a8b565b6200270f602083018562001d90565b6200271e604083018462001d90565b949350505050565b7f496e636f727265637420757365726e616d650000000000000000000000000000600082015250565b60006200275e601283620019fc565b91506200276b8262002726565b602082019050919050565b6000602082019050818103600083015262002791816200274f565b9050919050565b7f496e636f72726563742070617373776f72640000000000000000000000000000600082015250565b6000620027d0601283620019fc565b9150620027dd8262002798565b602082019050919050565b600060208201905081810360008301526200280381620027c1565b9050919050565b600060208201905062002821600083018462001a8b565b92915050565b7f557365726e616d65207265717569726564000000000000000000000000000000600082015250565b60006200285f601183620019fc565b91506200286c8262002827565b602082019050919050565b60006020820190508181036000830152620028928162002850565b9050919050565b7f50617373776f7264207265717569726564000000000000000000000000000000600082015250565b6000620028d1601183620019fc565b9150620028de8262002899565b602082019050919050565b600060208201905081810360008301526200290481620028c2565b9050919050565b600060e082019050818103600083015262002927818a62001a4a565b905081810360208301526200293d818962001a4a565b9050818103604083015262002953818862001a4a565b9050818103606083015262002969818762001a4a565b90506200297a608083018662001a8b565b81810360a08301526200298e818562001a4a565b90506200299f60c083018462001a8b565b98975050505050505050565b600081519050620029bc8162001892565b92915050565b60008060408385031215620029dc57620029db62001854565b5b6000620029ec85828601620029ab565b9250506020620029ff8582860162002342565b9150509250929050565b600060608201905062002a20600083018662001d90565b62002a2f602083018562001d90565b62002a3e604083018462001a8b565b949350505050565b6000806000806080858703121562002a635762002a6262001854565b5b600062002a738782880162002342565b945050602085015167ffffffffffffffff81111562002a975762002a9662001859565b5b62002aa5878288016200249c565b935050604085015167ffffffffffffffff81111562002ac95762002ac862001859565b5b62002ad7878288016200249c565b925050606085015167ffffffffffffffff81111562002afb5762002afa62001859565b5b62002b09878288016200249c565b91505092959194509250565b600060608201905062002b2c600083018662001a8b565b62002b3b602083018562001a8b565b818103604083015262002b4f818462001a4a565b9050949350505050565b6000806000806000806000806000806101408b8d03121562002b805762002b7f62001854565b5b600062002b908d828e0162002342565b9a5050602062002ba38d828e0162002342565b99505060408b015167ffffffffffffffff81111562002bc75762002bc662001859565b5b62002bd58d828e016200249c565b98505060608b015167ffffffffffffffff81111562002bf95762002bf862001859565b5b62002c078d828e016200249c565b975050608062002c1a8d828e0162002342565b96505060a062002c2d8d828e0162002342565b95505060c08b015167ffffffffffffffff81111562002c515762002c5062001859565b5b62002c5f8d828e016200249c565b94505060e08b015167ffffffffffffffff81111562002c835762002c8262001859565b5b62002c918d828e016200249c565b9350506101008b015167ffffffffffffffff81111562002cb65762002cb562001859565b5b62002cc48d828e016200249c565b9250506101208b015167ffffffffffffffff81111562002ce95762002ce862001859565b5b62002cf78d828e016200249c565b9150509295989b9194979a5092959850565b600060a08201905062002d20600083018862001a8b565b62002d2f602083018762001a8b565b62002d3e604083018662001a8b565b62002d4d606083018562001a8b565b818103608083015262002d61818462001a4a565b9050969550505050505056fe60806040523480156200001157600080fd5b5060405162000e5338038062000e5383398181016040528101906200003791906200027a565b866000908162000048919062000609565b5085600190816200005a919062000609565b5084600290816200006c919062000609565b5083600390816200007e919062000609565b5082600481905550816005908162000097919062000609565b508060068190555050505050505050620006f0565b6000604051905090565b600080fd5b600080fd5b600080fd5b600080fd5b6000601f19601f8301169050919050565b7f4e487b7100000000000000000000000000000000000000000000000000000000600052604160045260246000fd5b6200011582620000ca565b810181811067ffffffffffffffff82111715620001375762000136620000db565b5b80604052505050565b60006200014c620000ac565b90506200015a82826200010a565b919050565b600067ffffffffffffffff8211156200017d576200017c620000db565b5b6200018882620000ca565b9050602081019050919050565b60005b83811015620001b557808201518184015260208101905062000198565b60008484015250505050565b6000620001d8620001d2846200015f565b62000140565b905082815260208101848484011115620001f757620001f6620000c5565b5b6200020484828562000195565b509392505050565b600082601f830112620002245762000223620000c0565b5b815162000236848260208601620001c1565b91505092915050565b6000819050919050565b62000254816200023f565b81146200026057600080fd5b50565b600081519050620002748162000249565b92915050565b600080600080600080600060e0888a0312156200029c576200029b620000b6565b5b600088015167ffffffffffffffff811115620002bd57620002bc620000bb565b5b620002cb8a828b016200020c565b975050602088015167ffffffffffffffff811115620002ef57620002ee620000bb565b5b620002fd8a828b016200020c565b965050604088015167ffffffffffffffff811115620003215762000320620000bb565b5b6200032f8a828b016200020c565b955050606088015167ffffffffffffffff811115620003535762000352620000bb565b5b620003618a828b016200020c565b9450506080620003748a828b0162000263565b93505060a088015167ffffffffffffffff811115620003985762000397620000bb565b5b620003a68a828b016200020c565b92505060c0620003b98a828b0162000263565b91505092959891949750929550565b600081519050919050565b7f4e487b7100000000000000000000000000000000000000000000000000000000600052602260045260246000fd5b600060028204905060018216806200041b57607f821691505b602082108103620004315762000430620003d3565b5b50919050565b60008190508160005260206000209050919050565b60006020601f8301049050919050565b600082821b905092915050565b6000600883026200049b7fffffffffffffffffffffffffffffffffffffffffffffffffffffffffffffffff826200045c565b620004a786836200045c565b95508019841693508086168417925050509392505050565b6000819050919050565b6000620004ea620004e4620004de846200023f565b620004bf565b6200023f565b9050919050565b6000819050919050565b6200050683620004c9565b6200051e6200051582620004f1565b84845462000469565b825550505050565b600090565b6200053562000526565b62000542818484620004fb565b505050565b5b818110156200056a576200055e6000826200052b565b60018101905062000548565b5050565b601f821115620005b957620005838162000437565b6200058e846200044c565b810160208510156200059e578190505b620005b6620005ad856200044c565b83018262000547565b50505b505050565b600082821c905092915050565b6000620005de60001984600802620005be565b1980831691505092915050565b6000620005f98383620005cb565b9150826002028217905092915050565b6200061482620003c8565b67ffffffffffffffff81111562000630576200062f620000db565b5b6200063c825462000402565b620006498282856200056e565b600060209050601f8311600181146200068157600084156200066c578287015190505b620006788582620005eb565b865550620006e8565b601f198416620006918662000437565b60005b82811015620006bb5784890151825560018201915060208501945060208101905062000694565b86831015620006db5784890151620006d7601f891682620005cb565b8355505b6001600288020188555050505b505050505050565b61075380620007006000396000f3fe608060405234801561001057600080fd5b506004361061009e5760003560e01c806384819ace1161006657806384819ace14610139578063a74c2bb614610157578063c19d93fb14610175578063cc8e239414610193578063f629ad30146101b15761009e565b806306fdde03146100a357806317d7de7c146100c15780633dbcecec146100df57806341990077146100fd578063681f3e6d1461011b575b600080fd5b6100ab6101cf565b6040516100b89190610667565b60405180910390f35b6100c961025d565b6040516100d69190610667565b60405180910390f35b6100e76102ef565b6040516100f491906106a2565b60405180910390f35b6101056102f5565b60405161011291906106a2565b60405180910390f35b6101236102ff565b6040516101309190610667565b60405180910390f35b610141610391565b60405161014e91906106a2565b60405180910390f35b61015f610397565b60405161016c9190610667565b60405180910390f35b61017d610429565b60405161018a9190610667565b60405180910390f35b61019b6104b7565b6040516101a89190610667565b60405180910390f35b6101b9610549565b6040516101c69190610667565b60405180910390f35b600280546101dc906106ec565b80601f0160208091040260200160405190810160405280929190818152602001828054610208906106ec565b80156102555780601f1061022a57610100808354040283529160200191610255565b820191906000526020600020905b81548152906001019060200180831161023857829003601f168201915b505050505081565b60606002805461026c906106ec565b80601f0160208091040260200160405190810160405280929190818152602001828054610298906106ec565b80156102e55780601f106102ba576101008083540402835291602001916102e5565b820191906000526020600020905b8154815290600101906020018083116102c857829003601f168201915b5050505050905090565b60045481565b6000600654905090565b60606000805461030e906106ec565b80601f016020809104026020016040519081016040528092919081815260200182805461033a906106ec565b80156103875780601f1061035c57610100808354040283529160200191610387565b820191906000526020600020905b81548152906001019060200180831161036a57829003601f168201915b5050505050905090565b60065481565b6060600380546103a6906106ec565b80601f01602080910402602001604051908101604052809291908181526020018280546103d2906106ec565b801561041f5780601f106103f45761010080835404028352916020019161041f565b820191906000526020600020905b81548152906001019060200180831161040257829003601f168201915b5050505050905090565b60058054610436906106ec565b80601f0160208091040260200160405190810160405280929190818152602001828054610462906106ec565b80156104af5780601f10610484576101008083540402835291602001916104af565b820191906000526020600020905b81548152906001019060200180831161049257829003601f168201915b505050505081565b6060600180546104c6906106ec565b80601f01602080910402602001604051908101604052809291908181526020018280546104f2906106ec565b801561053f5780601f106105145761010080835404028352916020019161053f565b820191906000526020600020905b81548152906001019060200180831161052257829003601f168201915b5050505050905090565b60038054610556906106ec565b80601f0160208091040260200160405190810160405280929190818152602001828054610582906106ec565b80156105cf5780601f106105a4576101008083540402835291602001916105cf565b820191906000526020600020905b8154815290600101906020018083116105b257829003601f168201915b505050505081565b600081519050919050565b600082825260208201905092915050565b60005b838110156106115780820151818401526020810190506105f6565b60008484015250505050565b6000601f19601f8301169050919050565b6000610639826105d7565b61064381856105e2565b93506106538185602086016105f3565b61065c8161061d565b840191505092915050565b60006020820190508181036000830152610681818461062e565b905092915050565b6000819050919050565b61069c81610689565b82525050565b60006020820190506106b76000830184610693565b92915050565b7f4e487b7100000000000000000000000000000000000000000000000000000000600052602260045260246000fd5b6000600282049050600182168061070457607f821691505b602082108103610717576107166106bd565b5b5091905056fea2646970667358221220f2ebd8eb321740aa0d9b75b5085becc8d39f7b77f46a7eef2bb24dfb81b3785164736f6c63430008130033a264697066735822122058aec041c2f1b7d971d1fc7fa881c3c38148c2d4905754e562bde1bd80e1249264736f6c634300081300336080604052600060045534801561001557600080fd5b50612968806100256000396000f3fe608060405234801561001057600080fd5b50600436106100b35760003560e01c80638f6cc8c4116100715780638f6cc8c4146101b95780639ff512fa146101d5578063aaf39d6414610206578063b0ee0e9f14610222578063d18b52fa14610255578063d3d0bb0d14610288576100b3565b8062820349146100b85780630f8cda20146100f15780633a3e0c051461012157806343c2514714610151578063464113c71461016d5780636a3e3cea14610189575b600080fd5b6100d260048036038101906100cd9190611cc7565b6102a4565b6040516100e89a99989796959493929190611d93565b60405180910390f35b61010b60048036038101906101069190611eb7565b61083f565b6040516101189190611fa2565b60405180910390f35b61013b60048036038101906101369190611eb7565b6108d6565b6040516101489190611fa2565b60405180910390f35b61016b60048036038101906101669190611fc4565b61096d565b005b61018760048036038101906101829190612017565b610c62565b005b6101a3600480360381019061019e9190611cc7565b6110ce565b6040516101b0919061206a565b60405180910390f35b6101d360048036038101906101ce91906121c1565b611178565b005b6101ef60048036038101906101ea9190611cc7565b6113c3565b6040516101fd92919061223f565b60405180910390f35b610220600480360381019061021b9190612268565b611420565b005b61023c60048036038101906102379190611cc7565b61158d565b60405161024c94939291906122ff565b60405180910390f35b61026f600480360381019061026a9190611cc7565b61168c565b60405161027f949392919061234b565b60405180910390f35b6102a2600480360381019061029d91906123a5565b6118a4565b005b60008060608060008060608060608060008060008d81526020019081526020016000206040518061018001604052908160008201548152602001600182015481526020016002820180546102f79061250e565b80601f01602080910402602001604051908101604052809291908181526020018280546103239061250e565b80156103705780601f1061034557610100808354040283529160200191610370565b820191906000526020600020905b81548152906001019060200180831161035357829003601f168201915b505050505081526020016003820180546103899061250e565b80601f01602080910402602001604051908101604052809291908181526020018280546103b59061250e565b80156104025780601f106103d757610100808354040283529160200191610402565b820191906000526020600020905b8154815290600101906020018083116103e557829003601f168201915b5050505050815260200160048201548152602001600582015481526020016006820160405180604001604052908160008201805461043f9061250e565b80601f016020809104026020016040519081016040528092919081815260200182805461046b9061250e565b80156104b85780601f1061048d576101008083540402835291602001916104b8565b820191906000526020600020905b81548152906001019060200180831161049b57829003601f168201915b505050505081526020016001820154815250508152602001600882016040518060400160405290816000820180546104ef9061250e565b80601f016020809104026020016040519081016040528092919081815260200182805461051b9061250e565b80156105685780601f1061053d57610100808354040283529160200191610568565b820191906000526020600020905b81548152906001019060200180831161054b57829003601f168201915b505050505081526020016001820154815250508152602001600a820160405180604001604052908160008201805461059f9061250e565b80601f01602080910402602001604051908101604052809291908181526020018280546105cb9061250e565b80156106185780601f106105ed57610100808354040283529160200191610618565b820191906000526020600020905b8154815290600101906020018083116105fb57829003601f168201915b505050505081526020016001820154815250508152602001600c8201805461063f9061250e565b80601f016020809104026020016040519081016040528092919081815260200182805461066b9061250e565b80156106b85780601f1061068d576101008083540402835291602001916106b8565b820191906000526020600020905b81548152906001019060200180831161069b57829003601f168201915b50505050508152602001600d82016040518060800160405290816000820154815260200160018201548152602001600282015481526020016003820180546106ff9061250e565b80601f016020809104026020016040519081016040528092919081815260200182805461072b9061250e565b80156107785780601f1061074d57610100808354040283529160200191610778565b820191906000526020600020905b81548152906001019060200180831161075b57829003601f168201915b50505050508152505081526020016011820160009054906101000a900473ffffffffffffffffffffffffffffffffffffffff1673ffffffffffffffffffffffffffffffffffffffff1673ffffffffffffffffffffffffffffffffffffffff16815250509050806000015181602001518260400151836060015184608001518560a001518661012001518760c00151600001518860e0015160000151896101000151600001519a509a509a509a509a509a509a509a509a509a50509193959799509193959799565b6060600360008373ffffffffffffffffffffffffffffffffffffffff1673ffffffffffffffffffffffffffffffffffffffff1681526020019081526020016000208054806020026020016040519081016040528092919081815260200182805480156108ca57602002820191906000526020600020905b8154815260200190600101908083116108b6575b50505050509050919050565b6060600160008373ffffffffffffffffffffffffffffffffffffffff1673ffffffffffffffffffffffffffffffffffffffff16815260200190815260200160002080548060200260200160405190810160405280929190818152602001828054801561096157602002820191906000526020600020905b81548152602001906001019080831161094d575b50505050509050919050565b60005b600160008573ffffffffffffffffffffffffffffffffffffffff1673ffffffffffffffffffffffffffffffffffffffff16815260200190815260200160002080549050811015610bf65781600160008673ffffffffffffffffffffffffffffffffffffffff1673ffffffffffffffffffffffffffffffffffffffff1681526020019081526020016000208281548110610a0c57610a0b61253f565b5b906000526020600020015403610be35760018060008673ffffffffffffffffffffffffffffffffffffffff1673ffffffffffffffffffffffffffffffffffffffff16815260200190815260200160002080549050610a6a919061259d565b8114610b7957600160008573ffffffffffffffffffffffffffffffffffffffff1673ffffffffffffffffffffffffffffffffffffffff16815260200190815260200160002060018060008773ffffffffffffffffffffffffffffffffffffffff1673ffffffffffffffffffffffffffffffffffffffff16815260200190815260200160002080549050610afd919061259d565b81548110610b0e57610b0d61253f565b5b9060005260206000200154600160008673ffffffffffffffffffffffffffffffffffffffff1673ffffffffffffffffffffffffffffffffffffffff1681526020019081526020016000208281548110610b6a57610b6961253f565b5b90600052602060002001819055505b600160008573ffffffffffffffffffffffffffffffffffffffff1673ffffffffffffffffffffffffffffffffffffffff168152602001908152602001600020805480610bc857610bc76125d1565b5b60019003818190600052602060002001600090559055610bf6565b8080610bee90612600565b915050610970565b50600160008373ffffffffffffffffffffffffffffffffffffffff1673ffffffffffffffffffffffffffffffffffffffff168152602001908152602001600020819080600181540180825580915050600190039060005260206000200160009091909190915055505050565b60008367ffffffffffffffff811115610c7e57610c7d612096565b5b604051908082528060200260200182016040528015610cac5781602001602082028036833780820191505090505b50905060005b84811015610d4e576000600160008573ffffffffffffffffffffffffffffffffffffffff1673ffffffffffffffffffffffffffffffffffffffff1681526020019081526020016000208281548110610d0d57610d0c61253f565b5b9060005260206000200154905080838381518110610d2e57610d2d61253f565b5b602002602001018181525050508080610d4690612600565b915050610cb2565b5060008490505b600160008473ffffffffffffffffffffffffffffffffffffffff1673ffffffffffffffffffffffffffffffffffffffff16815260200190815260200160002080549050811015610e7857600160008473ffffffffffffffffffffffffffffffffffffffff1673ffffffffffffffffffffffffffffffffffffffff1681526020019081526020016000208181548110610df057610def61253f565b5b9060005260206000200154600160008573ffffffffffffffffffffffffffffffffffffffff1673ffffffffffffffffffffffffffffffffffffffff1681526020019081526020016000208683610e46919061259d565b81548110610e5757610e5661253f565b5b90600052602060002001819055508080610e7090612600565b915050610d55565b5060005b84811015610efc57600160008473ffffffffffffffffffffffffffffffffffffffff1673ffffffffffffffffffffffffffffffffffffffff168152602001908152602001600020805480610ed357610ed26125d1565b5b600190038181906000526020600020016000905590558080610ef490612600565b915050610e7c565b5060006040518060a0016040528060045481526020018473ffffffffffffffffffffffffffffffffffffffff1681526020018381526020018573ffffffffffffffffffffffffffffffffffffffff168152602001600015158152509050806002600060045481526020019081526020016000206000820151816000015560208201518160010160006101000a81548173ffffffffffffffffffffffffffffffffffffffff021916908373ffffffffffffffffffffffffffffffffffffffff1602179055506040820151816002019080519060200190610fdc929190611b42565b5060608201518160030160006101000a81548173ffffffffffffffffffffffffffffffffffffffff021916908373ffffffffffffffffffffffffffffffffffffffff16021790555060808201518160030160146101000a81548160ff021916908315150217905550905050600360008573ffffffffffffffffffffffffffffffffffffffff1673ffffffffffffffffffffffffffffffffffffffff1681526020019081526020016000206004549080600181540180825580915050600190039060005260206000200160009091909190915055600460008154809291906110c290612600565b91905055505050505050565b606060008083815260200190815260200160002060060160000180546110f39061250e565b80601f016020809104026020016040519081016040528092919081815260200182805461111f9061250e565b801561116c5780601f106111415761010080835404028352916020019161116c565b820191906000526020600020905b81548152906001019060200180831161114f57829003601f168201915b50505050509050919050565b60006002600085815260200190815260200160002060030160009054906101000a900473ffffffffffffffffffffffffffffffffffffffff16905060006002600086815260200190815260200160002060020180548060200260200160405190810160405280929190818152602001828054801561121557602002820191906000526020600020905b815481526020019060010190808311611201575b5050505050905060005b81518110156113bb57600160008473ffffffffffffffffffffffffffffffffffffffff1673ffffffffffffffffffffffffffffffffffffffff16815260200190815260200160002082828151811061127a5761127961253f565b5b602002602001015190806001815401808255809150506001900390600052602060002001600090919091909150556002850361132857836000808484815181106112c7576112c661253f565b5b6020026020010151815260200190815260200160002060080160000190816112ef91906127f4565b50426000808484815181106113075761130661253f565b5b60200260200101518152602001908152602001600020600801600101819055505b600385036113a857836000808484815181106113475761134661253f565b5b60200260200101518152602001908152602001600020600a01600001908161136f91906127f4565b50426000808484815181106113875761138661253f565b5b60200260200101518152602001908152602001600020600a01600101819055505b80806113b390612600565b91505061121f565b505050505050565b6000806002600084815260200190815260200160002060010160009054906101000a900473ffffffffffffffffffffffffffffffffffffffff16600260008581526020019081526020016000206002018054905091509150915091565b60018310158015611432575060058311155b611471576040517f08c379a000000000000000000000000000000000000000000000000000000000815260040161146890612912565b60405180910390fd5b60018310158015611483575060058311155b6114c2576040517f08c379a00000000000000000000000000000000000000000000000000000000081526004016114b990612912565b60405180910390fd5b600183101580156114d4575060058311155b611513576040517f08c379a000000000000000000000000000000000000000000000000000000000815260040161150a90612912565b60405180910390fd5b6000604051806080016040528085815260200186815260200184815260200183815250905080600080888152602001908152602001600020600d01600082015181600001556020820151816001015560408201518160020155606082015181600301908161158191906127f4565b50905050505050505050565b600080600060606000806000878152602001908152602001600020600d016040518060800160405290816000820154815260200160018201548152602001600282015481526020016003820180546115e49061250e565b80601f01602080910402602001604051908101604052809291908181526020018280546116109061250e565b801561165d5780601f106116325761010080835404028352916020019161165d565b820191906000526020600020905b81548152906001019060200180831161164057829003601f168201915b505050505081525050905080600001518160200151826040015183606001519450945094509450509193509193565b6000606080606060008086815260200190815260200160002060010154600080878152602001908152602001600020600601600001600080888152602001908152602001600020600801600001600080898152602001908152602001600020600a016000018280546116fd9061250e565b80601f01602080910402602001604051908101604052809291908181526020018280546117299061250e565b80156117765780601f1061174b57610100808354040283529160200191611776565b820191906000526020600020905b81548152906001019060200180831161175957829003601f168201915b505050505092508180546117899061250e565b80601f01602080910402602001604051908101604052809291908181526020018280546117b59061250e565b80156118025780601f106117d757610100808354040283529160200191611802565b820191906000526020600020905b8154815290600101906020018083116117e557829003601f168201915b505050505091508080546118159061250e565b80601f01602080910402602001604051908101604052809291908181526020018280546118419061250e565b801561188e5780601f106118635761010080835404028352916020019161188e565b820191906000526020600020905b81548152906001019060200180831161187157829003601f168201915b5050505050905093509350935093509193509193565b6118ac611b8f565b898160000181815250508881602001818152505087816040018190525086816060018190525085816080018181525050848160a001818152505083816101200181905250828160c0015160000181905250428160c001516020018181525050600081610160019073ffffffffffffffffffffffffffffffffffffffff16908173ffffffffffffffffffffffffffffffffffffffff1681525050806000808c81526020019081526020016000206000820151816000015560208201518160010155604082015181600201908161198191906127f4565b50606082015181600301908161199791906127f4565b506080820151816004015560a0820151816005015560c08201518160060160008201518160000190816119ca91906127f4565b5060208201518160010155505060e08201518160080160008201518160000190816119f591906127f4565b5060208201518160010155505061010082015181600a016000820151816000019081611a2191906127f4565b5060208201518160010155505061012082015181600c019081611a4491906127f4565b5061014082015181600d016000820151816000015560208201518160010155604082015181600201556060820151816003019081611a8291906127f4565b5050506101608201518160110160006101000a81548173ffffffffffffffffffffffffffffffffffffffff021916908373ffffffffffffffffffffffffffffffffffffffff160217905550905050600160008373ffffffffffffffffffffffffffffffffffffffff1673ffffffffffffffffffffffffffffffffffffffff1681526020019081526020016000208a908060018154018082558091505060019003906000526020600020016000909190919091505550505050505050505050565b828054828255906000526020600020908101928215611b7e579160200282015b82811115611b7d578251825591602001919060010190611b62565b5b509050611b8b9190611c1e565b5090565b604051806101800160405280600081526020016000815260200160608152602001606081526020016000815260200160008152602001611bcd611c3b565b8152602001611bda611c3b565b8152602001611be7611c3b565b815260200160608152602001611bfb611c55565b8152602001600073ffffffffffffffffffffffffffffffffffffffff1681525090565b5b80821115611c37576000816000905550600101611c1f565b5090565b604051806040016040528060608152602001600081525090565b6040518060800160405280600081526020016000815260200160008152602001606081525090565b6000604051905090565b600080fd5b600080fd5b6000819050919050565b611ca481611c91565b8114611caf57600080fd5b50565b600081359050611cc181611c9b565b92915050565b600060208284031215611cdd57611cdc611c87565b5b6000611ceb84828501611cb2565b91505092915050565b611cfd81611c91565b82525050565b600081519050919050565b600082825260208201905092915050565b60005b83811015611d3d578082015181840152602081019050611d22565b60008484015250505050565b6000601f19601f8301169050919050565b6000611d6582611d03565b611d6f8185611d0e565b9350611d7f818560208601611d1f565b611d8881611d49565b840191505092915050565b600061014082019050611da9600083018d611cf4565b611db6602083018c611cf4565b8181036040830152611dc8818b611d5a565b90508181036060830152611ddc818a611d5a565b9050611deb6080830189611cf4565b611df860a0830188611cf4565b81810360c0830152611e0a8187611d5a565b905081810360e0830152611e1e8186611d5a565b9050818103610100830152611e338185611d5a565b9050818103610120830152611e488184611d5a565b90509b9a5050505050505050505050565b600073ffffffffffffffffffffffffffffffffffffffff82169050919050565b6000611e8482611e59565b9050919050565b611e9481611e79565b8114611e9f57600080fd5b50565b600081359050611eb181611e8b565b92915050565b600060208284031215611ecd57611ecc611c87565b5b6000611edb84828501611ea2565b91505092915050565b600081519050919050565b600082825260208201905092915050565b6000819050602082019050919050565b611f1981611c91565b82525050565b6000611f2b8383611f10565b60208301905092915050565b6000602082019050919050565b6000611f4f82611ee4565b611f598185611eef565b9350611f6483611f00565b8060005b83811015611f95578151611f7c8882611f1f565b9750611f8783611f37565b925050600181019050611f68565b5085935050505092915050565b60006020820190508181036000830152611fbc8184611f44565b905092915050565b600080600060608486031215611fdd57611fdc611c87565b5b6000611feb86828701611ea2565b9350506020611ffc86828701611ea2565b925050604061200d86828701611cb2565b9150509250925092565b6000806000606084860312156120305761202f611c87565b5b600061203e86828701611cb2565b935050602061204f86828701611ea2565b925050604061206086828701611ea2565b9150509250925092565b600060208201905081810360008301526120848184611d5a565b905092915050565b600080fd5b600080fd5b7f4e487b7100000000000000000000000000000000000000000000000000000000600052604160045260246000fd5b6120ce82611d49565b810181811067ffffffffffffffff821117156120ed576120ec612096565b5b80604052505050565b6000612100611c7d565b905061210c82826120c5565b919050565b600067ffffffffffffffff82111561212c5761212b612096565b5b61213582611d49565b9050602081019050919050565b82818337600083830152505050565b600061216461215f84612111565b6120f6565b9050828152602081018484840111156121805761217f612091565b5b61218b848285612142565b509392505050565b600082601f8301126121a8576121a761208c565b5b81356121b8848260208601612151565b91505092915050565b6000806000606084860312156121da576121d9611c87565b5b60006121e886828701611cb2565b93505060206121f986828701611cb2565b925050604084013567ffffffffffffffff81111561221a57612219611c8c565b5b61222686828701612193565b9150509250925092565b61223981611e79565b82525050565b60006040820190506122546000830185612230565b6122616020830184611cf4565b9392505050565b600080600080600060a0868803121561228457612283611c87565b5b600061229288828901611cb2565b95505060206122a388828901611cb2565b94505060406122b488828901611cb2565b93505060606122c588828901611cb2565b925050608086013567ffffffffffffffff8111156122e6576122e5611c8c565b5b6122f288828901612193565b9150509295509295909350565b60006080820190506123146000830187611cf4565b6123216020830186611cf4565b61232e6040830185611cf4565b81810360608301526123408184611d5a565b905095945050505050565b60006080820190506123606000830187611cf4565b81810360208301526123728186611d5a565b905081810360408301526123868185611d5a565b9050818103606083015261239a8184611d5a565b905095945050505050565b60008060008060008060008060006101208a8c0312156123c8576123c7611c87565b5b60006123d68c828d01611cb2565b99505060206123e78c828d01611cb2565b98505060408a013567ffffffffffffffff81111561240857612407611c8c565b5b6124148c828d01612193565b97505060608a013567ffffffffffffffff81111561243557612434611c8c565b5b6124418c828d01612193565b96505060806124528c828d01611cb2565b95505060a06124638c828d01611cb2565b94505060c08a013567ffffffffffffffff81111561248457612483611c8c565b5b6124908c828d01612193565b93505060e08a013567ffffffffffffffff8111156124b1576124b0611c8c565b5b6124bd8c828d01612193565b9250506101006124cf8c828d01611ea2565b9150509295985092959850929598565b7f4e487b7100000000000000000000000000000000000000000000000000000000600052602260045260246000fd5b6000600282049050600182168061252657607f821691505b602082108103612539576125386124df565b5b50919050565b7f4e487b7100000000000000000000000000000000000000000000000000000000600052603260045260246000fd5b7f4e487b7100000000000000000000000000000000000000000000000000000000600052601160045260246000fd5b60006125a882611c91565b91506125b383611c91565b92508282039050818111156125cb576125ca61256e565b5b92915050565b7f4e487b7100000000000000000000000000000000000000000000000000000000600052603160045260246000fd5b600061260b82611c91565b91507fffffffffffffffffffffffffffffffffffffffffffffffffffffffffffffffff820361263d5761263c61256e565b5b600182019050919050565b60008190508160005260206000209050919050565b60006020601f8301049050919050565b600082821b905092915050565b6000600883026126aa7fffffffffffffffffffffffffffffffffffffffffffffffffffffffffffffffff8261266d565b6126b4868361266d565b95508019841693508086168417925050509392505050565b6000819050919050565b60006126f16126ec6126e784611c91565b6126cc565b611c91565b9050919050565b6000819050919050565b61270b836126d6565b61271f612717826126f8565b84845461267a565b825550505050565b600090565b612734612727565b61273f818484612702565b505050565b5b818110156127635761275860008261272c565b600181019050612745565b5050565b601f8211156127a85761277981612648565b6127828461265d565b81016020851015612791578190505b6127a561279d8561265d565b830182612744565b50505b505050565b600082821c905092915050565b60006127cb600019846008026127ad565b1980831691505092915050565b60006127e483836127ba565b9150826002028217905092915050565b6127fd82611d03565b67ffffffffffffffff81111561281657612815612096565b5b612820825461250e565b61282b828285612767565b600060209050601f83116001811461285e576000841561284c578287015190505b61285685826127d8565b8655506128be565b601f19841661286c86612648565b60005b828110156128945784890151825560018201915060208501945060208101905061286f565b868310156128b157848901516128ad601f8916826127ba565b8355505b6001600288020188555050505b505050505050565b7f496e76616c696420726174696e672076616c7565000000000000000000000000600082015250565b60006128fc601483611d0e565b9150612907826128c6565b602082019050919050565b6000602082019050818103600083015261292b816128ef565b905091905056fea264697066735822122053b800fa70391f8d788c2d3e55b0c748224004d0bd78bb7ddad0eda6dc2b631264736f6c63430008130033",
  "immutableReferences": {},
  "source": "// SPDX-License-Identifier: MIT\r\npragma solidity ^0.8.0;\r\nimport \"./User.sol\";\r\nimport \"./DurianMarket.sol\";\r\n\r\ncontract Facade {\r\n\r\n     User sessionUser;\r\n     DurianMarket instance = new DurianMarket();\r\n     address payable public owner;\r\n\r\n     constructor(){\r\n          owner = payable (msg.sender);\r\n     }\r\n\r\n    mapping(address => User) private users;\r\n\r\n    function register(string memory _username, string memory _pass, string memory _name, string memory _address, uint _postal, string memory _state, uint _userType) public {\r\n    require(bytes(_username).length > 0, \"Username required\");\r\n    require(bytes(_pass).length > 0, \"Password required\");\r\n    User newUser = new User(_username, _pass, _name,_address,_postal,_state,_userType);\r\n\r\n    users[msg.sender] = newUser;\r\n    }\r\n\r\n\r\n \r\n function getAddress()public view returns(address){\r\n      return msg.sender;\r\n }\r\n\r\n  function login(string memory username, string memory password)public {\r\n    require(keccak256(bytes(users[msg.sender].getUsername())) == keccak256(bytes(username)), \"Incorrect username\");\r\n    require(keccak256(bytes(users[msg.sender].getPassword())) == keccak256(bytes(password)), \"Incorrect password\");\r\n\r\n    sessionUser = users[msg.sender];\r\n\r\n  }\r\n\r\n   function getCurrentUserDetail() public view returns(string memory, string memory,uint256,string memory ){\r\n      require(bytes(sessionUser.getUsername()).length != 0,\"Please log in\");\r\n      return (sessionUser.name(),sessionUser.homeAddress(),sessionUser.postal(),sessionUser.state());\r\n  }\r\n\r\n  function rateDurian(uint256 durianId, uint256 taste, uint256 creaminess, uint fragrance,string memory comment)public{\r\n      //require(sessionUser.userAddress != 0x0000000000000000000000000000000000000000, \"Not the Owner Of Durian\");\r\n     instance.addRating(durianId,taste,creaminess,fragrance, comment);\r\n  }\r\n\r\n  function getDurianDetail(uint256 durianID)public view returns(uint256, uint256,string memory, string memory,uint256,uint256,string memory,string memory,string memory, string memory){\r\n       return instance.getDurianById(durianID);\r\n  }\r\n\r\nfunction getDurianLocation(uint256 durianID)public view returns(string memory){\r\n        return instance.getDurianLocation(durianID);\r\n    }\r\n\r\n\r\n  function addDurian(uint256 _durianID, uint256 _durianTreeID, string memory _name, string memory _colour, uint256 _size, uint256 _weight, string memory _harvestDate) public{\r\n        string memory fullAddress = string(abi.encodePacked(sessionUser.name(),sessionUser.homeAddress()));\r\n       instance.addDurian(_durianID, _durianTreeID, _name,  _colour, _size, _weight, _harvestDate, fullAddress,msg.sender);\r\n  }\r\n\r\n  function showAllOwnedDurians(address ownerAddress)public view returns(uint[] memory){\r\n       return instance.showAllOwnedDurians(ownerAddress);\r\n  }\r\n\r\n  function transferDurians(uint quantity, address target, address source)public{\r\n       \r\n       instance.transferDurians(quantity, target,source);\r\n  }\r\n\r\n  function receiveDurians(uint id) public{\r\n       string memory fullAddress = string(abi.encodePacked(sessionUser.name(),sessionUser.homeAddress()));\r\n       instance.receiveDurians(id, sessionUser.userType(), fullAddress);\r\n  }\r\n\r\n  function getTransactions(address senderAddress)public view returns(uint[] memory){\r\n       return instance.getTransactions(senderAddress);\r\n  }\r\n\r\n  function getTransactionDetail(uint id)public view returns(string memory ,uint256){\r\n        (address source, uint256 quantity) = instance.getTransactionDetail(id);\r\n        return (users[source].name(),quantity);\r\n    }\r\n\r\n  function getDurianOrigin(uint id) public view returns(uint ,string memory, string memory, string memory){\r\n       return instance.getDurianOrigin(id);\r\n  }\r\n\r\n  function buyDurian(address durianRetailer,address durianBuyer,uint durianId, uint durianFee)public payable{\r\n       require(msg.value >= durianFee);\r\n\t\towner.transfer(msg.value);\r\n          instance.sellDurian(durianRetailer,durianBuyer,durianId);\r\n\r\n  }\r\n    \r\n}",
  "sourcePath": "C:\\Users\\debbi\\OneDrive\\Desktop\\DurianTracker\\contracts\\Facade.sol",
  "compiler": {
    "name": "solc",
    "version": "0.8.19+commit.7dd6d404.Emscripten.clang"
  },
  "schemaVersion": "3.4.13",
  "updatedAt": "2023-05-15T08:50:34.014Z",
  "networkType": "ethereum",
  "devdoc": {
    "kind": "dev",
    "methods": {},
    "version": 1
  },
  "userdoc": {
    "kind": "user",
    "methods": {},
    "version": 1
  }
}