{
  "contractName": "User",
  "abi": [
    {
      "inputs": [
        {
          "internalType": "string",
          "name": "_username",
          "type": "string"
        },
        {
          "internalType": "string",
          "name": "_pass",
          "type": "string"
        },
        {
          "internalType": "string",
          "name": "_name",
          "type": "string"
        },
        {
          "internalType": "string",
          "name": "_address",
          "type": "string"
        },
        {
          "internalType": "uint256",
          "name": "_postal",
          "type": "uint256"
        },
        {
          "internalType": "string",
          "name": "_state",
          "type": "string"
        },
        {
          "internalType": "uint256",
          "name": "_type",
          "type": "uint256"
        }
      ],
      "stateMutability": "nonpayable",
      "type": "constructor"
    },
    {
      "inputs": [],
      "name": "homeAddress",
      "outputs": [
        {
          "internalType": "string",
          "name": "",
          "type": "string"
        }
      ],
      "stateMutability": "view",
      "type": "function",
      "constant": true
    },
    {
      "inputs": [],
      "name": "name",
      "outputs": [
        {
          "internalType": "string",
          "name": "",
          "type": "string"
        }
      ],
      "stateMutability": "view",
      "type": "function",
      "constant": true
    },
    {
      "inputs": [],
      "name": "postal",
      "outputs": [
        {
          "internalType": "uint256",
          "name": "",
          "type": "uint256"
        }
      ],
      "stateMutability": "view",
      "type": "function",
      "constant": true
    },
    {
      "inputs": [],
      "name": "state",
      "outputs": [
        {
          "internalType": "string",
          "name": "",
          "type": "string"
        }
      ],
      "stateMutability": "view",
      "type": "function",
      "constant": true
    },
    {
      "inputs": [],
      "name": "userType",
      "outputs": [
        {
          "internalType": "uint256",
          "name": "",
          "type": "uint256"
        }
      ],
      "stateMutability": "view",
      "type": "function",
      "constant": true
    },
    {
      "inputs": [],
      "name": "getUsername",
      "outputs": [
        {
          "internalType": "string",
          "name": "",
          "type": "string"
        }
      ],
      "stateMutability": "view",
      "type": "function",
      "constant": true
    },
    {
      "inputs": [],
      "name": "getPassword",
      "outputs": [
        {
          "internalType": "string",
          "name": "",
          "type": "string"
        }
      ],
      "stateMutability": "view",
      "type": "function",
      "constant": true
    },
    {
      "inputs": [],
      "name": "getAddr",
      "outputs": [
        {
          "internalType": "string",
          "name": "",
          "type": "string"
        }
      ],
      "stateMutability": "view",
      "type": "function",
      "constant": true
    },
    {
      "inputs": [],
      "name": "getName",
      "outputs": [
        {
          "internalType": "string",
          "name": "",
          "type": "string"
        }
      ],
      "stateMutability": "view",
      "type": "function",
      "constant": true
    },
    {
      "inputs": [],
      "name": "getUserType",
      "outputs": [
        {
          "internalType": "uint256",
          "name": "",
          "type": "uint256"
        }
      ],
      "stateMutability": "view",
      "type": "function",
      "constant": true
    }
  ],
  "bytecode": "0x60806040523480156200001157600080fd5b5060405162000e5338038062000e5383398181016040528101906200003791906200027a565b866000908162000048919062000609565b5085600190816200005a919062000609565b5084600290816200006c919062000609565b5083600390816200007e919062000609565b5082600481905550816005908162000097919062000609565b508060068190555050505050505050620006f0565b6000604051905090565b600080fd5b600080fd5b600080fd5b600080fd5b6000601f19601f8301169050919050565b7f4e487b7100000000000000000000000000000000000000000000000000000000600052604160045260246000fd5b6200011582620000ca565b810181811067ffffffffffffffff82111715620001375762000136620000db565b5b80604052505050565b60006200014c620000ac565b90506200015a82826200010a565b919050565b600067ffffffffffffffff8211156200017d576200017c620000db565b5b6200018882620000ca565b9050602081019050919050565b60005b83811015620001b557808201518184015260208101905062000198565b60008484015250505050565b6000620001d8620001d2846200015f565b62000140565b905082815260208101848484011115620001f757620001f6620000c5565b5b6200020484828562000195565b509392505050565b600082601f830112620002245762000223620000c0565b5b815162000236848260208601620001c1565b91505092915050565b6000819050919050565b62000254816200023f565b81146200026057600080fd5b50565b600081519050620002748162000249565b92915050565b600080600080600080600060e0888a0312156200029c576200029b620000b6565b5b600088015167ffffffffffffffff811115620002bd57620002bc620000bb565b5b620002cb8a828b016200020c565b975050602088015167ffffffffffffffff811115620002ef57620002ee620000bb565b5b620002fd8a828b016200020c565b965050604088015167ffffffffffffffff811115620003215762000320620000bb565b5b6200032f8a828b016200020c565b955050606088015167ffffffffffffffff811115620003535762000352620000bb565b5b620003618a828b016200020c565b9450506080620003748a828b0162000263565b93505060a088015167ffffffffffffffff811115620003985762000397620000bb565b5b620003a68a828b016200020c565b92505060c0620003b98a828b0162000263565b91505092959891949750929550565b600081519050919050565b7f4e487b7100000000000000000000000000000000000000000000000000000000600052602260045260246000fd5b600060028204905060018216806200041b57607f821691505b602082108103620004315762000430620003d3565b5b50919050565b60008190508160005260206000209050919050565b60006020601f8301049050919050565b600082821b905092915050565b6000600883026200049b7fffffffffffffffffffffffffffffffffffffffffffffffffffffffffffffffff826200045c565b620004a786836200045c565b95508019841693508086168417925050509392505050565b6000819050919050565b6000620004ea620004e4620004de846200023f565b620004bf565b6200023f565b9050919050565b6000819050919050565b6200050683620004c9565b6200051e6200051582620004f1565b84845462000469565b825550505050565b600090565b6200053562000526565b62000542818484620004fb565b505050565b5b818110156200056a576200055e6000826200052b565b60018101905062000548565b5050565b601f821115620005b957620005838162000437565b6200058e846200044c565b810160208510156200059e578190505b620005b6620005ad856200044c565b83018262000547565b50505b505050565b600082821c905092915050565b6000620005de60001984600802620005be565b1980831691505092915050565b6000620005f98383620005cb565b9150826002028217905092915050565b6200061482620003c8565b67ffffffffffffffff81111562000630576200062f620000db565b5b6200063c825462000402565b620006498282856200056e565b600060209050601f8311600181146200068157600084156200066c578287015190505b620006788582620005eb565b865550620006e8565b601f198416620006918662000437565b60005b82811015620006bb5784890151825560018201915060208501945060208101905062000694565b86831015620006db5784890151620006d7601f891682620005cb565b8355505b6001600288020188555050505b505050505050565b61075380620007006000396000f3fe608060405234801561001057600080fd5b506004361061009e5760003560e01c806384819ace1161006657806384819ace14610139578063a74c2bb614610157578063c19d93fb14610175578063cc8e239414610193578063f629ad30146101b15761009e565b806306fdde03146100a357806317d7de7c146100c15780633dbcecec146100df57806341990077146100fd578063681f3e6d1461011b575b600080fd5b6100ab6101cf565b6040516100b89190610667565b60405180910390f35b6100c961025d565b6040516100d69190610667565b60405180910390f35b6100e76102ef565b6040516100f491906106a2565b60405180910390f35b6101056102f5565b60405161011291906106a2565b60405180910390f35b6101236102ff565b6040516101309190610667565b60405180910390f35b610141610391565b60405161014e91906106a2565b60405180910390f35b61015f610397565b60405161016c9190610667565b60405180910390f35b61017d610429565b60405161018a9190610667565b60405180910390f35b61019b6104b7565b6040516101a89190610667565b60405180910390f35b6101b9610549565b6040516101c69190610667565b60405180910390f35b600280546101dc906106ec565b80601f0160208091040260200160405190810160405280929190818152602001828054610208906106ec565b80156102555780601f1061022a57610100808354040283529160200191610255565b820191906000526020600020905b81548152906001019060200180831161023857829003601f168201915b505050505081565b60606002805461026c906106ec565b80601f0160208091040260200160405190810160405280929190818152602001828054610298906106ec565b80156102e55780601f106102ba576101008083540402835291602001916102e5565b820191906000526020600020905b8154815290600101906020018083116102c857829003601f168201915b5050505050905090565b60045481565b6000600654905090565b60606000805461030e906106ec565b80601f016020809104026020016040519081016040528092919081815260200182805461033a906106ec565b80156103875780601f1061035c57610100808354040283529160200191610387565b820191906000526020600020905b81548152906001019060200180831161036a57829003601f168201915b5050505050905090565b60065481565b6060600380546103a6906106ec565b80601f01602080910402602001604051908101604052809291908181526020018280546103d2906106ec565b801561041f5780601f106103f45761010080835404028352916020019161041f565b820191906000526020600020905b81548152906001019060200180831161040257829003601f168201915b5050505050905090565b60058054610436906106ec565b80601f0160208091040260200160405190810160405280929190818152602001828054610462906106ec565b80156104af5780601f10610484576101008083540402835291602001916104af565b820191906000526020600020905b81548152906001019060200180831161049257829003601f168201915b505050505081565b6060600180546104c6906106ec565b80601f01602080910402602001604051908101604052809291908181526020018280546104f2906106ec565b801561053f5780601f106105145761010080835404028352916020019161053f565b820191906000526020600020905b81548152906001019060200180831161052257829003601f168201915b5050505050905090565b60038054610556906106ec565b80601f0160208091040260200160405190810160405280929190818152602001828054610582906106ec565b80156105cf5780601f106105a4576101008083540402835291602001916105cf565b820191906000526020600020905b8154815290600101906020018083116105b257829003601f168201915b505050505081565b600081519050919050565b600082825260208201905092915050565b60005b838110156106115780820151818401526020810190506105f6565b60008484015250505050565b6000601f19601f8301169050919050565b6000610639826105d7565b61064381856105e2565b93506106538185602086016105f3565b61065c8161061d565b840191505092915050565b60006020820190508181036000830152610681818461062e565b905092915050565b6000819050919050565b61069c81610689565b82525050565b60006020820190506106b76000830184610693565b92915050565b7f4e487b7100000000000000000000000000000000000000000000000000000000600052602260045260246000fd5b6000600282049050600182168061070457607f821691505b602082108103610717576107166106bd565b5b5091905056fea2646970667358221220f2ebd8eb321740aa0d9b75b5085becc8d39f7b77f46a7eef2bb24dfb81b3785164736f6c63430008130033",
  "immutableReferences": {},
  "source": "//SPDX-License-Identifier: MIT\r\n\r\npragma solidity ^0.8.0;\r\n\r\ncontract User{\r\n    string username;\r\n    string password;\r\n    string public name;\r\n    string public homeAddress;\r\n    uint public postal;\r\n    string public state;\r\n    uint public userType; //1:Farmer 2:Distributor 3:Retailer\r\n   \r\n\r\n\r\n    constructor(string memory _username, string memory _pass, string memory _name, string memory _address, uint _postal, string memory _state,uint _type){\r\n        username = _username;\r\n        password = _pass;\r\n        name = _name;\r\n        homeAddress = _address;\r\n        postal = _postal;\r\n        state = _state;\r\n        userType  = _type;\r\n    }\r\n\r\n    function getUsername() public view returns(string memory){\r\n        return username;\r\n    }\r\n\r\n    function getPassword() public view returns(string memory){\r\n        return password;\r\n    }\r\n\r\n    function getAddr() public view returns(string memory){\r\n        return homeAddress;\r\n    }\r\n\r\n    function getName() public view returns(string memory){\r\n        return name;\r\n    }\r\n\r\n\r\n    function getUserType()public view returns(uint256){\r\n        return userType;\r\n    }\r\n\r\n\r\n   \r\n}",
  "sourcePath": "C:\\Users\\debbi\\OneDrive\\Desktop\\DurianTracker\\contracts\\User.sol",
  "compiler": {
    "name": "solc",
    "version": "0.8.19+commit.7dd6d404.Emscripten.clang"
  },
  "schemaVersion": "3.4.13",
  "updatedAt": "2023-05-15T08:50:33.973Z",
  "networkType": "ethereum",
  "devdoc": {
    "kind": "dev",
    "methods": {},
    "version": 1
  },
  "userdoc": {
    "kind": "user",
    "methods": {},
    "version": 1
  }
}